{
  "_format": "hh-sol-artifact-1",
  "contractName": "PrivacyPaymaster",
  "sourceName": "contracts/PrivacyPaymaster.sol",
  "abi": [
    {
      "inputs": [
        {
          "internalType": "contract IEntryPoint",
          "name": "_entryPoint",
          "type": "address"
        },
        {
          "internalType": "address",
          "name": "_usdc",
          "type": "address"
        }
      ],
      "stateMutability": "nonpayable",
      "type": "constructor"
    },
    {
      "inputs": [
        {
          "internalType": "address",
          "name": "owner",
          "type": "address"
        }
      ],
      "name": "OwnableInvalidOwner",
      "type": "error"
    },
    {
      "inputs": [
        {
          "internalType": "address",
          "name": "account",
          "type": "address"
        }
      ],
      "name": "OwnableUnauthorizedAccount",
      "type": "error"
    },
    {
      "anonymous": false,
      "inputs": [
        {
          "indexed": true,
          "internalType": "address",
          "name": "account",
          "type": "address"
        },
        {
          "indexed": false,
          "internalType": "bool",
          "name": "approved",
          "type": "bool"
        }
      ],
      "name": "AccountApproved",
      "type": "event"
    },
    {
      "anonymous": false,
      "inputs": [
        {
          "indexed": true,
          "internalType": "address",
          "name": "account",
          "type": "address"
        },
        {
          "indexed": false,
          "internalType": "uint256",
          "name": "amount",
          "type": "uint256"
        }
      ],
      "name": "AccountFunded",
      "type": "event"
    },
    {
      "anonymous": false,
      "inputs": [
        {
          "indexed": true,
          "internalType": "address",
          "name": "account",
          "type": "address"
        },
        {
          "indexed": false,
          "internalType": "uint256",
          "name": "actualGasCost",
          "type": "uint256"
        }
      ],
      "name": "GasSponsored",
      "type": "event"
    },
    {
      "anonymous": false,
      "inputs": [
        {
          "indexed": false,
          "internalType": "uint256",
          "name": "maxGasPrice",
          "type": "uint256"
        },
        {
          "indexed": false,
          "internalType": "uint256",
          "name": "maxGasLimit",
          "type": "uint256"
        }
      ],
      "name": "MaxGasConfigUpdated",
      "type": "event"
    },
    {
      "anonymous": false,
      "inputs": [
        {
          "indexed": true,
          "internalType": "address",
          "name": "previousOwner",
          "type": "address"
        },
        {
          "indexed": true,
          "internalType": "address",
          "name": "newOwner",
          "type": "address"
        }
      ],
      "name": "OwnershipTransferStarted",
      "type": "event"
    },
    {
      "anonymous": false,
      "inputs": [
        {
          "indexed": true,
          "internalType": "address",
          "name": "previousOwner",
          "type": "address"
        },
        {
          "indexed": true,
          "internalType": "address",
          "name": "newOwner",
          "type": "address"
        }
      ],
      "name": "OwnershipTransferred",
      "type": "event"
    },
    {
      "anonymous": false,
      "inputs": [
        {
          "indexed": true,
          "internalType": "address",
          "name": "sender",
          "type": "address"
        },
        {
          "indexed": false,
          "internalType": "uint256",
          "name": "amount",
          "type": "uint256"
        }
      ],
      "name": "PaymasterDeposited",
      "type": "event"
    },
    {
      "anonymous": false,
      "inputs": [
        {
          "indexed": true,
          "internalType": "address",
          "name": "to",
          "type": "address"
        },
        {
          "indexed": false,
          "internalType": "uint256",
          "name": "amount",
          "type": "uint256"
        }
      ],
      "name": "PaymasterWithdrawn",
      "type": "event"
    },
    {
      "anonymous": false,
      "inputs": [
        {
          "indexed": false,
          "internalType": "uint256",
          "name": "newRate",
          "type": "uint256"
        }
      ],
      "name": "RateUpdated",
      "type": "event"
    },
    {
      "inputs": [],
      "name": "acceptOwnership",
      "outputs": [],
      "stateMutability": "nonpayable",
      "type": "function"
    },
    {
      "inputs": [
        {
          "internalType": "address",
          "name": "",
          "type": "address"
        }
      ],
      "name": "accountBalances",
      "outputs": [
        {
          "internalType": "uint256",
          "name": "",
          "type": "uint256"
        }
      ],
      "stateMutability": "view",
      "type": "function"
    },
    {
      "inputs": [],
      "name": "addDeposit",
      "outputs": [],
      "stateMutability": "payable",
      "type": "function"
    },
    {
      "inputs": [
        {
          "internalType": "uint32",
          "name": "unstakeDelaySec",
          "type": "uint32"
        }
      ],
      "name": "addStake",
      "outputs": [],
      "stateMutability": "payable",
      "type": "function"
    },
    {
      "inputs": [
        {
          "internalType": "address",
          "name": "",
          "type": "address"
        }
      ],
      "name": "approvedAccounts",
      "outputs": [
        {
          "internalType": "bool",
          "name": "",
          "type": "bool"
        }
      ],
      "stateMutability": "view",
      "type": "function"
    },
    {
      "inputs": [
        {
          "internalType": "address[]",
          "name": "accounts",
          "type": "address[]"
        }
      ],
      "name": "batchApproveAccounts",
      "outputs": [],
      "stateMutability": "nonpayable",
      "type": "function"
    },
    {
      "inputs": [],
      "name": "deposit",
      "outputs": [],
      "stateMutability": "payable",
      "type": "function"
    },
    {
      "inputs": [],
      "name": "entryPoint",
      "outputs": [
        {
          "internalType": "contract IEntryPoint",
          "name": "",
          "type": "address"
        }
      ],
      "stateMutability": "view",
      "type": "function"
    },
    {
      "inputs": [
        {
          "internalType": "address",
          "name": "account",
          "type": "address"
        },
        {
          "internalType": "uint256",
          "name": "usdcAmount",
          "type": "uint256"
        }
      ],
      "name": "fundAccount",
      "outputs": [],
      "stateMutability": "nonpayable",
      "type": "function"
    },
    {
      "inputs": [
        {
          "internalType": "address",
          "name": "account",
          "type": "address"
        }
      ],
      "name": "getAccountBalance",
      "outputs": [
        {
          "internalType": "uint256",
          "name": "",
          "type": "uint256"
        }
      ],
      "stateMutability": "view",
      "type": "function"
    },
    {
      "inputs": [],
      "name": "getDeposit",
      "outputs": [
        {
          "internalType": "uint256",
          "name": "",
          "type": "uint256"
        }
      ],
      "stateMutability": "view",
      "type": "function"
    },
    {
      "inputs": [],
      "name": "getPaymasterBalance",
      "outputs": [
        {
          "internalType": "uint256",
          "name": "",
          "type": "uint256"
        }
      ],
      "stateMutability": "view",
      "type": "function"
    },
    {
      "inputs": [],
      "name": "getStats",
      "outputs": [
        {
          "internalType": "uint256",
          "name": "sponsored",
          "type": "uint256"
        },
        {
          "internalType": "uint256",
          "name": "operations",
          "type": "uint256"
        }
      ],
      "stateMutability": "view",
      "type": "function"
    },
    {
      "inputs": [],
      "name": "maxGasLimit",
      "outputs": [
        {
          "internalType": "uint256",
          "name": "",
          "type": "uint256"
        }
      ],
      "stateMutability": "view",
      "type": "function"
    },
    {
      "inputs": [],
      "name": "maxGasPrice",
      "outputs": [
        {
          "internalType": "uint256",
          "name": "",
          "type": "uint256"
        }
      ],
      "stateMutability": "view",
      "type": "function"
    },
    {
      "inputs": [],
      "name": "operationCount",
      "outputs": [
        {
          "internalType": "uint256",
          "name": "",
          "type": "uint256"
        }
      ],
      "stateMutability": "view",
      "type": "function"
    },
    {
      "inputs": [],
      "name": "owner",
      "outputs": [
        {
          "internalType": "address",
          "name": "",
          "type": "address"
        }
      ],
      "stateMutability": "view",
      "type": "function"
    },
    {
      "inputs": [],
      "name": "pendingOwner",
      "outputs": [
        {
          "internalType": "address",
          "name": "",
          "type": "address"
        }
      ],
      "stateMutability": "view",
      "type": "function"
    },
    {
      "inputs": [
        {
          "internalType": "enum IPaymaster.PostOpMode",
          "name": "mode",
          "type": "uint8"
        },
        {
          "internalType": "bytes",
          "name": "context",
          "type": "bytes"
        },
        {
          "internalType": "uint256",
          "name": "actualGasCost",
          "type": "uint256"
        },
        {
          "internalType": "uint256",
          "name": "actualUserOpFeePerGas",
          "type": "uint256"
        }
      ],
      "name": "postOp",
      "outputs": [],
      "stateMutability": "nonpayable",
      "type": "function"
    },
    {
      "inputs": [],
      "name": "renounceOwnership",
      "outputs": [],
      "stateMutability": "nonpayable",
      "type": "function"
    },
    {
      "inputs": [
        {
          "internalType": "address",
          "name": "account",
          "type": "address"
        },
        {
          "internalType": "bool",
          "name": "approved",
          "type": "bool"
        }
      ],
      "name": "setAccountApproval",
      "outputs": [],
      "stateMutability": "nonpayable",
      "type": "function"
    },
    {
      "inputs": [],
      "name": "totalSponsored",
      "outputs": [
        {
          "internalType": "uint256",
          "name": "",
          "type": "uint256"
        }
      ],
      "stateMutability": "view",
      "type": "function"
    },
    {
      "inputs": [
        {
          "internalType": "address",
          "name": "newOwner",
          "type": "address"
        }
      ],
      "name": "transferOwnership",
      "outputs": [],
      "stateMutability": "nonpayable",
      "type": "function"
    },
    {
      "inputs": [],
      "name": "unlockStake",
      "outputs": [],
      "stateMutability": "nonpayable",
      "type": "function"
    },
    {
      "inputs": [
        {
          "internalType": "uint256",
          "name": "_maxGasPrice",
          "type": "uint256"
        },
        {
          "internalType": "uint256",
          "name": "_maxGasLimit",
          "type": "uint256"
        }
      ],
      "name": "updateGasConfig",
      "outputs": [],
      "stateMutability": "nonpayable",
      "type": "function"
    },
    {
      "inputs": [
        {
          "internalType": "uint256",
          "name": "newRate",
          "type": "uint256"
        }
      ],
      "name": "updateUsdcRate",
      "outputs": [],
      "stateMutability": "nonpayable",
      "type": "function"
    },
    {
      "inputs": [],
      "name": "usdc",
      "outputs": [
        {
          "internalType": "contract IERC20",
          "name": "",
          "type": "address"
        }
      ],
      "stateMutability": "view",
      "type": "function"
    },
    {
      "inputs": [],
      "name": "usdcToEthRate",
      "outputs": [
        {
          "internalType": "uint256",
          "name": "",
          "type": "uint256"
        }
      ],
      "stateMutability": "view",
      "type": "function"
    },
    {
      "inputs": [
        {
          "components": [
            {
              "internalType": "address",
              "name": "sender",
              "type": "address"
            },
            {
              "internalType": "uint256",
              "name": "nonce",
              "type": "uint256"
            },
            {
              "internalType": "bytes",
              "name": "initCode",
              "type": "bytes"
            },
            {
              "internalType": "bytes",
              "name": "callData",
              "type": "bytes"
            },
            {
              "internalType": "bytes32",
              "name": "accountGasLimits",
              "type": "bytes32"
            },
            {
              "internalType": "uint256",
              "name": "preVerificationGas",
              "type": "uint256"
            },
            {
              "internalType": "bytes32",
              "name": "gasFees",
              "type": "bytes32"
            },
            {
              "internalType": "bytes",
              "name": "paymasterAndData",
              "type": "bytes"
            },
            {
              "internalType": "bytes",
              "name": "signature",
              "type": "bytes"
            }
          ],
          "internalType": "struct PackedUserOperation",
          "name": "userOp",
          "type": "tuple"
        },
        {
          "internalType": "bytes32",
          "name": "userOpHash",
          "type": "bytes32"
        },
        {
          "internalType": "uint256",
          "name": "maxCost",
          "type": "uint256"
        }
      ],
      "name": "validatePaymasterUserOp",
      "outputs": [
        {
          "internalType": "bytes",
          "name": "context",
          "type": "bytes"
        },
        {
          "internalType": "uint256",
          "name": "validationData",
          "type": "uint256"
        }
      ],
      "stateMutability": "nonpayable",
      "type": "function"
    },
    {
      "inputs": [
        {
          "internalType": "address payable",
          "name": "to",
          "type": "address"
        },
        {
          "internalType": "uint256",
          "name": "amount",
          "type": "uint256"
        }
      ],
      "name": "withdrawPaymaster",
      "outputs": [],
      "stateMutability": "nonpayable",
      "type": "function"
    },
    {
      "inputs": [
        {
          "internalType": "address payable",
          "name": "withdrawAddress",
          "type": "address"
        }
      ],
      "name": "withdrawStake",
      "outputs": [],
      "stateMutability": "nonpayable",
      "type": "function"
    },
    {
      "inputs": [
        {
          "internalType": "address payable",
          "name": "withdrawAddress",
          "type": "address"
        },
        {
          "internalType": "uint256",
          "name": "amount",
          "type": "uint256"
        }
      ],
      "name": "withdrawTo",
      "outputs": [],
      "stateMutability": "nonpayable",
      "type": "function"
    },
    {
      "inputs": [
        {
          "internalType": "address",
          "name": "to",
          "type": "address"
        },
        {
          "internalType": "uint256",
          "name": "amount",
          "type": "uint256"
        }
      ],
      "name": "withdrawUSDC",
      "outputs": [],
      "stateMutability": "nonpayable",
      "type": "function"
    }
  ],
  "bytecode": "0x60e060405234801561001057600080fd5b5060405161363e38038061363e83398181016040528101906100329190610476565b8133600073ffffffffffffffffffffffffffffffffffffffff168173ffffffffffffffffffffffffffffffffffffffff16036100a65760006040517f1e4fbdf700000000000000000000000000000000000000000000000000000000815260040161009d91906104c5565b60405180910390fd5b6100b5816101fe60201b60201c565b506100c58161023560201b60201c565b8073ffffffffffffffffffffffffffffffffffffffff1660808173ffffffffffffffffffffffffffffffffffffffff168152505050600073ffffffffffffffffffffffffffffffffffffffff168173ffffffffffffffffffffffffffffffffffffffff1603610169576040517f08c379a00000000000000000000000000000000000000000000000000000000081526004016101609061053d565b60405180910390fd5b3373ffffffffffffffffffffffffffffffffffffffff1660c08173ffffffffffffffffffffffffffffffffffffffff16815250508073ffffffffffffffffffffffffffffffffffffffff1660a08173ffffffffffffffffffffffffffffffffffffffff168152505068878678326eac90000060048190555064174876e800600581905550620f42406006819055505050610684565b600160006101000a81549073ffffffffffffffffffffffffffffffffffffffff02191690556102328161031160201b60201c565b50565b8073ffffffffffffffffffffffffffffffffffffffff166301ffc9a77f989ccc58000000000000000000000000000000000000000000000000000000006040518263ffffffff1660e01b815260040161028e9190610598565b602060405180830381865afa1580156102ab573d6000803e3d6000fd5b505050506040513d601f19601f820116820180604052508101906102cf91906105eb565b61030e576040517f08c379a000000000000000000000000000000000000000000000000000000000815260040161030590610664565b60405180910390fd5b50565b60008060009054906101000a900473ffffffffffffffffffffffffffffffffffffffff169050816000806101000a81548173ffffffffffffffffffffffffffffffffffffffff021916908373ffffffffffffffffffffffffffffffffffffffff1602179055508173ffffffffffffffffffffffffffffffffffffffff168173ffffffffffffffffffffffffffffffffffffffff167f8be0079c531659141344cd1fd0a4f28419497f9722a3daafe3b4186f6b6457e060405160405180910390a35050565b600080fd5b600073ffffffffffffffffffffffffffffffffffffffff82169050919050565b6000610405826103da565b9050919050565b6000610417826103fa565b9050919050565b6104278161040c565b811461043257600080fd5b50565b6000815190506104448161041e565b92915050565b610453816103fa565b811461045e57600080fd5b50565b6000815190506104708161044a565b92915050565b6000806040838503121561048d5761048c6103d5565b5b600061049b85828601610435565b92505060206104ac85828601610461565b9150509250929050565b6104bf816103fa565b82525050565b60006020820190506104da60008301846104b6565b92915050565b600082825260208201905092915050565b7f496e76616c696420555344430000000000000000000000000000000000000000600082015250565b6000610527600c836104e0565b9150610532826104f1565b602082019050919050565b600060208201905081810360008301526105568161051a565b9050919050565b60007fffffffff0000000000000000000000000000000000000000000000000000000082169050919050565b6105928161055d565b82525050565b60006020820190506105ad6000830184610589565b92915050565b60008115159050919050565b6105c8816105b3565b81146105d357600080fd5b50565b6000815190506105e5816105bf565b92915050565b600060208284031215610601576106006103d5565b5b600061060f848285016105d6565b91505092915050565b7f49456e747279506f696e7420696e74657266616365206d69736d617463680000600082015250565b600061064e601e836104e0565b915061065982610618565b602082019050919050565b6000602082019050818103600083015261067d81610641565b9050919050565b60805160a05160c051612f0d610731600039600081816107be01528181610a9501528181610e800152818161100d01528181611187015281816113b6015261174f015260008181610a7101528181610b230152610cd301526000818161072f0152818161084c0152818161092d015281816109d401528181610f0e01528181611559015281816115850152818161160f0152818161169f015281816118fb0152611aed0152612f0d6000f3fe6080604052600436106101ee5760003560e01c806372134df01161010d578063c23a5cea116100a0578063ce2605af1161006f578063ce2605af14610671578063d0e30db01461069c578063e30c3978146106a6578063eb0ebfbc146106d1578063f2fde38b146106fc576101ee565b8063c23a5cea146105c8578063c399ec88146105f1578063c59d48471461061c578063c8f318b014610648576101ee565b806393423e9c116100dc57806393423e9c14610520578063a9dbed051461055d578063b0d691fe14610586578063bb9fe6bf146105b1576101ee565b806372134df01461048c57806379ba5097146104b55780637c627b21146104cc5780638da5cb5b146104f5576101ee565b8063450fac7111610185578063571fe99111610154578063571fe991146103d05780635e45da231461040d5780636ff96d1714610438578063715018a614610475576101ee565b8063450fac71146103365780634a58db191461035f57806352b7512c1461036957806355b58367146103a7576101ee565b806323d3c142116101c157806323d3c1421461028c5780633de39c11146102b75780633e413bee146102e257806344471fd91461030d576101ee565b80630396cb60146101f35780631a2afdfc1461020f578063200ccb7d14610238578063205c287814610263575b600080fd5b61020d60048036038101906102089190612060565b610725565b005b34801561021b57600080fd5b5061023660048036038101906102319190612121565b6107bc565b005b34801561024457600080fd5b5061024d610929565b60405161025a9190612170565b60405180910390f35b34801561026f57600080fd5b5061028a60048036038101906102859190612121565b6109ca565b005b34801561029857600080fd5b506102a1610a63565b6040516102ae9190612170565b60405180910390f35b3480156102c357600080fd5b506102cc610a69565b6040516102d99190612170565b60405180910390f35b3480156102ee57600080fd5b506102f7610a6f565b60405161030491906121ea565b60405180910390f35b34801561031957600080fd5b50610334600480360381019061032f9190612243565b610a93565b005b34801561034257600080fd5b5061035d60048036038101906103589190612243565b610c02565b005b610367610e7e565b005b34801561037557600080fd5b50610390600480360381019061038b91906122de565b610fe8565b60405161039e9291906123dd565b60405180910390f35b3480156103b357600080fd5b506103ce60048036038101906103c9919061240d565b61100b565b005b3480156103dc57600080fd5b506103f760048036038101906103f2919061244d565b611133565b6040516104049190612495565b60405180910390f35b34801561041957600080fd5b50610422611153565b60405161042f9190612170565b60405180910390f35b34801561044457600080fd5b5061045f600480360381019061045a919061244d565b611159565b60405161046c9190612170565b60405180910390f35b34801561048157600080fd5b5061048a611171565b005b34801561049857600080fd5b506104b360048036038101906104ae91906124b0565b611185565b005b3480156104c157600080fd5b506104ca611297565b005b3480156104d857600080fd5b506104f360048036038101906104ee9190612567565b611326565b005b34801561050157600080fd5b5061050a611342565b60405161051791906125fe565b60405180910390f35b34801561052c57600080fd5b506105476004803603810190610542919061244d565b61136b565b6040516105549190612170565b60405180910390f35b34801561056957600080fd5b50610584600480360381019061057f919061266f565b6113b4565b005b34801561059257600080fd5b5061059b611557565b6040516105a891906126dd565b60405180910390f35b3480156105bd57600080fd5b506105c661157b565b005b3480156105d457600080fd5b506105ef60048036038101906105ea91906126f8565b611605565b005b3480156105fd57600080fd5b5061060661169b565b6040516106139190612170565b60405180910390f35b34801561062857600080fd5b5061063161173c565b60405161063f929190612725565b60405180910390f35b34801561065457600080fd5b5061066f600480360381019061066a919061277a565b61174d565b005b34801561067d57600080fd5b506106866118f3565b6040516106939190612170565b60405180910390f35b6106a46118f9565b005b3480156106b257600080fd5b506106bb611987565b6040516106c891906125fe565b60405180910390f35b3480156106dd57600080fd5b506106e66119b1565b6040516106f39190612170565b60405180910390f35b34801561070857600080fd5b50610723600480360381019061071e919061244d565b6119b7565b005b61072d611a64565b7f000000000000000000000000000000000000000000000000000000000000000073ffffffffffffffffffffffffffffffffffffffff16630396cb6034836040518363ffffffff1660e01b815260040161078791906127c9565b6000604051808303818588803b1580156107a057600080fd5b505af11580156107b4573d6000803e3d6000fd5b505050505050565b7f000000000000000000000000000000000000000000000000000000000000000073ffffffffffffffffffffffffffffffffffffffff163373ffffffffffffffffffffffffffffffffffffffff161461084a576040517f08c379a000000000000000000000000000000000000000000000000000000000815260040161084190612841565b60405180910390fd5b7f000000000000000000000000000000000000000000000000000000000000000073ffffffffffffffffffffffffffffffffffffffff1663205c287883836040518363ffffffff1660e01b81526004016108a5929190612870565b600060405180830381600087803b1580156108bf57600080fd5b505af11580156108d3573d6000803e3d6000fd5b505050508173ffffffffffffffffffffffffffffffffffffffff167f4bce4a4ca68d82b29c04a390ac4303f7079cf9028d69784bf345e07ae54dc7898260405161091d9190612170565b60405180910390a25050565b60007f000000000000000000000000000000000000000000000000000000000000000073ffffffffffffffffffffffffffffffffffffffff166370a08231306040518263ffffffff1660e01b815260040161098491906125fe565b602060405180830381865afa1580156109a1573d6000803e3d6000fd5b505050506040513d601f19601f820116820180604052508101906109c591906128ae565b905090565b6109d2611a64565b7f000000000000000000000000000000000000000000000000000000000000000073ffffffffffffffffffffffffffffffffffffffff1663205c287883836040518363ffffffff1660e01b8152600401610a2d929190612870565b600060405180830381600087803b158015610a4757600080fd5b505af1158015610a5b573d6000803e3d6000fd5b505050505050565b60085481565b60055481565b7f000000000000000000000000000000000000000000000000000000000000000081565b7f000000000000000000000000000000000000000000000000000000000000000073ffffffffffffffffffffffffffffffffffffffff163373ffffffffffffffffffffffffffffffffffffffff1614610b21576040517f08c379a0000000000000000000000000000000000000000000000000000000008152600401610b1890612841565b60405180910390fd5b7f000000000000000000000000000000000000000000000000000000000000000073ffffffffffffffffffffffffffffffffffffffff1663a9059cbb83836040518363ffffffff1660e01b8152600401610b7c9291906128db565b6020604051808303816000875af1158015610b9b573d6000803e3d6000fd5b505050506040513d601f19601f82011682018060405250810190610bbf9190612919565b610bfe576040517f08c379a0000000000000000000000000000000000000000000000000000000008152600401610bf590612992565b60405180910390fd5b5050565b600260008373ffffffffffffffffffffffffffffffffffffffff1673ffffffffffffffffffffffffffffffffffffffff16815260200190815260200160002060009054906101000a900460ff16610c8e576040517f08c379a0000000000000000000000000000000000000000000000000000000008152600401610c85906129fe565b60405180910390fd5b60008111610cd1576040517f08c379a0000000000000000000000000000000000000000000000000000000008152600401610cc890612a6a565b60405180910390fd5b7f000000000000000000000000000000000000000000000000000000000000000073ffffffffffffffffffffffffffffffffffffffff166323b872dd3330846040518463ffffffff1660e01b8152600401610d2e93929190612a8a565b6020604051808303816000875af1158015610d4d573d6000803e3d6000fd5b505050506040513d601f19601f82011682018060405250810190610d719190612919565b610db0576040517f08c379a0000000000000000000000000000000000000000000000000000000008152600401610da790612992565b60405180910390fd5b6000600454670de0b6b3a764000083610dc99190612af0565b610dd39190612b61565b905080600360008573ffffffffffffffffffffffffffffffffffffffff1673ffffffffffffffffffffffffffffffffffffffff1681526020019081526020016000206000828254610e249190612b92565b925050819055508273ffffffffffffffffffffffffffffffffffffffff167fbccbe05a3719eacef984f404dd2adff555adcc05fb72fb8b309bafbd462cd6f782604051610e719190612170565b60405180910390a2505050565b7f000000000000000000000000000000000000000000000000000000000000000073ffffffffffffffffffffffffffffffffffffffff163373ffffffffffffffffffffffffffffffffffffffff1614610f0c576040517f08c379a0000000000000000000000000000000000000000000000000000000008152600401610f0390612841565b60405180910390fd5b7f000000000000000000000000000000000000000000000000000000000000000073ffffffffffffffffffffffffffffffffffffffff1663b760faf934306040518363ffffffff1660e01b8152600401610f6691906125fe565b6000604051808303818588803b158015610f7f57600080fd5b505af1158015610f93573d6000803e3d6000fd5b50505050503373ffffffffffffffffffffffffffffffffffffffff167fbc7ca18aabaed00211fcdeab040a07bab11e595ae73f83568cf0dda3d4010ea034604051610fde9190612170565b60405180910390a2565b60606000610ff4611aeb565b610fff858585611b7b565b91509150935093915050565b7f000000000000000000000000000000000000000000000000000000000000000073ffffffffffffffffffffffffffffffffffffffff163373ffffffffffffffffffffffffffffffffffffffff1614611099576040517f08c379a000000000000000000000000000000000000000000000000000000000815260040161109090612841565b60405180910390fd5b6000821180156110a95750600081115b6110e8576040517f08c379a00000000000000000000000000000000000000000000000000000000081526004016110df90612c12565b60405180910390fd5b81600581905550806006819055507f1c70eac87229abc464ddcc949d04fcc89435059c0553658f0307dc101223f4a28282604051611127929190612725565b60405180910390a15050565b60026020528060005260406000206000915054906101000a900460ff1681565b60065481565b60036020528060005260406000206000915090505481565b611179611a64565b6111836000611da2565b565b7f000000000000000000000000000000000000000000000000000000000000000073ffffffffffffffffffffffffffffffffffffffff163373ffffffffffffffffffffffffffffffffffffffff1614611213576040517f08c379a000000000000000000000000000000000000000000000000000000000815260040161120a90612841565b60405180910390fd5b60008111611256576040517f08c379a000000000000000000000000000000000000000000000000000000000815260040161124d90612c7e565b60405180910390fd5b806004819055507fe65c987b2e4668e09ba867026921588005b2b2063607a1e7e7d91683c8f91b7b8160405161128c9190612170565b60405180910390a150565b60006112a1611dd3565b90508073ffffffffffffffffffffffffffffffffffffffff166112c2611987565b73ffffffffffffffffffffffffffffffffffffffff161461131a57806040517f118cdaa700000000000000000000000000000000000000000000000000000000815260040161131191906125fe565b60405180910390fd5b61132381611da2565b50565b61132e611aeb565b61133b8585858585611ddb565b5050505050565b60008060009054906101000a900473ffffffffffffffffffffffffffffffffffffffff16905090565b6000600360008373ffffffffffffffffffffffffffffffffffffffff1673ffffffffffffffffffffffffffffffffffffffff168152602001908152602001600020549050919050565b7f000000000000000000000000000000000000000000000000000000000000000073ffffffffffffffffffffffffffffffffffffffff163373ffffffffffffffffffffffffffffffffffffffff1614611442576040517f08c379a000000000000000000000000000000000000000000000000000000000815260040161143990612841565b60405180910390fd5b60005b828290508110156115525760016002600085858581811061146957611468612c9e565b5b905060200201602081019061147e919061244d565b73ffffffffffffffffffffffffffffffffffffffff1673ffffffffffffffffffffffffffffffffffffffff16815260200190815260200160002060006101000a81548160ff0219169083151502179055508282828181106114e2576114e1612c9e565b5b90506020020160208101906114f7919061244d565b73ffffffffffffffffffffffffffffffffffffffff167f3175243b04a36d7d90a19ca53d7cbf7a7529f2ca15d10671e1562a4e5804b3d4600160405161153d9190612495565b60405180910390a28080600101915050611445565b505050565b7f000000000000000000000000000000000000000000000000000000000000000081565b611583611a64565b7f000000000000000000000000000000000000000000000000000000000000000073ffffffffffffffffffffffffffffffffffffffff1663bb9fe6bf6040518163ffffffff1660e01b8152600401600060405180830381600087803b1580156115eb57600080fd5b505af11580156115ff573d6000803e3d6000fd5b50505050565b61160d611a64565b7f000000000000000000000000000000000000000000000000000000000000000073ffffffffffffffffffffffffffffffffffffffff1663c23a5cea826040518263ffffffff1660e01b81526004016116669190612ccd565b600060405180830381600087803b15801561168057600080fd5b505af1158015611694573d6000803e3d6000fd5b5050505050565b60007f000000000000000000000000000000000000000000000000000000000000000073ffffffffffffffffffffffffffffffffffffffff166370a08231306040518263ffffffff1660e01b81526004016116f691906125fe565b602060405180830381865afa158015611713573d6000803e3d6000fd5b505050506040513d601f19601f8201168201806040525081019061173791906128ae565b905090565b600080600754600854915091509091565b7f000000000000000000000000000000000000000000000000000000000000000073ffffffffffffffffffffffffffffffffffffffff163373ffffffffffffffffffffffffffffffffffffffff16146117db576040517f08c379a00000000000000000000000000000000000000000000000000000000081526004016117d290612841565b60405180910390fd5b600073ffffffffffffffffffffffffffffffffffffffff168273ffffffffffffffffffffffffffffffffffffffff160361184a576040517f08c379a000000000000000000000000000000000000000000000000000000000815260040161184190612d34565b60405180910390fd5b80600260008473ffffffffffffffffffffffffffffffffffffffff1673ffffffffffffffffffffffffffffffffffffffff16815260200190815260200160002060006101000a81548160ff0219169083151502179055508173ffffffffffffffffffffffffffffffffffffffff167f3175243b04a36d7d90a19ca53d7cbf7a7529f2ca15d10671e1562a4e5804b3d4826040516118e79190612495565b60405180910390a25050565b60045481565b7f000000000000000000000000000000000000000000000000000000000000000073ffffffffffffffffffffffffffffffffffffffff1663b760faf934306040518363ffffffff1660e01b815260040161195391906125fe565b6000604051808303818588803b15801561196c57600080fd5b505af1158015611980573d6000803e3d6000fd5b5050505050565b6000600160009054906101000a900473ffffffffffffffffffffffffffffffffffffffff16905090565b60075481565b6119bf611a64565b80600160006101000a81548173ffffffffffffffffffffffffffffffffffffffff021916908373ffffffffffffffffffffffffffffffffffffffff1602179055508073ffffffffffffffffffffffffffffffffffffffff16611a1f611342565b73ffffffffffffffffffffffffffffffffffffffff167f38d16b8cac22d99fc7c124b9cd0de2d3fa1faef420bfe791d8c362d765e2270060405160405180910390a350565b611a6c611dd3565b73ffffffffffffffffffffffffffffffffffffffff16611a8a611342565b73ffffffffffffffffffffffffffffffffffffffff1614611ae957611aad611dd3565b6040517f118cdaa7000000000000000000000000000000000000000000000000000000008152600401611ae091906125fe565b60405180910390fd5b565b7f000000000000000000000000000000000000000000000000000000000000000073ffffffffffffffffffffffffffffffffffffffff163373ffffffffffffffffffffffffffffffffffffffff1614611b79576040517f08c379a0000000000000000000000000000000000000000000000000000000008152600401611b7090612da0565b60405180910390fd5b565b6060600060026000866000016020810190611b96919061244d565b73ffffffffffffffffffffffffffffffffffffffff1673ffffffffffffffffffffffffffffffffffffffff16815260200190815260200160002060009054906101000a900460ff16611c1d576040517f08c379a0000000000000000000000000000000000000000000000000000000008152600401611c14906129fe565b60405180910390fd5b6000856080013560801c6fffffffffffffffffffffffffffffffff169050600554811115611c80576040517f08c379a0000000000000000000000000000000000000000000000000000000008152600401611c7790612e0c565b60405180910390fd5b8360036000886000016020810190611c98919061244d565b73ffffffffffffffffffffffffffffffffffffffff1673ffffffffffffffffffffffffffffffffffffffff168152602001908152602001600020541015611cf657600160405180602001604052806000815250909250925050611d9a565b8360036000886000016020810190611d0e919061244d565b73ffffffffffffffffffffffffffffffffffffffff1673ffffffffffffffffffffffffffffffffffffffff1681526020019081526020016000206000828254611d579190612e2c565b92505081905550856000016020810190611d71919061244d565b84604051602001611d839291906128db565b604051602081830303815290604052925060009150505b935093915050565b600160006101000a81549073ffffffffffffffffffffffffffffffffffffffff0219169055611dd081611f56565b50565b600033905090565b6000808585810190611ded9190612121565b9150915060006002811115611e0557611e04612e60565b5b876002811115611e1857611e17612e60565b5b1480611e48575060016002811115611e3357611e32612e60565b5b876002811115611e4657611e45612e60565b5b145b15611f4d576000848211611e5d576000611e6a565b8482611e699190612e2c565b5b90506000811115611ecc5780600360008573ffffffffffffffffffffffffffffffffffffffff1673ffffffffffffffffffffffffffffffffffffffff1681526020019081526020016000206000828254611ec49190612b92565b925050819055505b8460076000828254611ede9190612b92565b9250508190555060086000815480929190611ef890612e8f565b91905055508273ffffffffffffffffffffffffffffffffffffffff167f2f5b7da0b8502c9a04f1c60a92a12cc859cb3cefb8951253e2f1c0df6c65d28d86604051611f439190612170565b60405180910390a2505b50505050505050565b60008060009054906101000a900473ffffffffffffffffffffffffffffffffffffffff169050816000806101000a81548173ffffffffffffffffffffffffffffffffffffffff021916908373ffffffffffffffffffffffffffffffffffffffff1602179055508173ffffffffffffffffffffffffffffffffffffffff168173ffffffffffffffffffffffffffffffffffffffff167f8be0079c531659141344cd1fd0a4f28419497f9722a3daafe3b4186f6b6457e060405160405180910390a35050565b600080fd5b600080fd5b600063ffffffff82169050919050565b61203d81612024565b811461204857600080fd5b50565b60008135905061205a81612034565b92915050565b6000602082840312156120765761207561201a565b5b60006120848482850161204b565b91505092915050565b600073ffffffffffffffffffffffffffffffffffffffff82169050919050565b60006120b88261208d565b9050919050565b6120c8816120ad565b81146120d357600080fd5b50565b6000813590506120e5816120bf565b92915050565b6000819050919050565b6120fe816120eb565b811461210957600080fd5b50565b60008135905061211b816120f5565b92915050565b600080604083850312156121385761213761201a565b5b6000612146858286016120d6565b92505060206121578582860161210c565b9150509250929050565b61216a816120eb565b82525050565b60006020820190506121856000830184612161565b92915050565b6000819050919050565b60006121b06121ab6121a68461208d565b61218b565b61208d565b9050919050565b60006121c282612195565b9050919050565b60006121d4826121b7565b9050919050565b6121e4816121c9565b82525050565b60006020820190506121ff60008301846121db565b92915050565b60006122108261208d565b9050919050565b61222081612205565b811461222b57600080fd5b50565b60008135905061223d81612217565b92915050565b6000806040838503121561225a5761225961201a565b5b60006122688582860161222e565b92505060206122798582860161210c565b9150509250929050565b600080fd5b6000610120828403121561229f5761229e612283565b5b81905092915050565b6000819050919050565b6122bb816122a8565b81146122c657600080fd5b50565b6000813590506122d8816122b2565b92915050565b6000806000606084860312156122f7576122f661201a565b5b600084013567ffffffffffffffff8111156123155761231461201f565b5b61232186828701612288565b9350506020612332868287016122c9565b92505060406123438682870161210c565b9150509250925092565b600081519050919050565b600082825260208201905092915050565b60005b8381101561238757808201518184015260208101905061236c565b60008484015250505050565b6000601f19601f8301169050919050565b60006123af8261234d565b6123b98185612358565b93506123c9818560208601612369565b6123d281612393565b840191505092915050565b600060408201905081810360008301526123f781856123a4565b90506124066020830184612161565b9392505050565b600080604083850312156124245761242361201a565b5b60006124328582860161210c565b92505060206124438582860161210c565b9150509250929050565b6000602082840312156124635761246261201a565b5b60006124718482850161222e565b91505092915050565b60008115159050919050565b61248f8161247a565b82525050565b60006020820190506124aa6000830184612486565b92915050565b6000602082840312156124c6576124c561201a565b5b60006124d48482850161210c565b91505092915050565b600381106124ea57600080fd5b50565b6000813590506124fc816124dd565b92915050565b600080fd5b600080fd5b600080fd5b60008083601f84011261252757612526612502565b5b8235905067ffffffffffffffff81111561254457612543612507565b5b6020830191508360018202830111156125605761255f61250c565b5b9250929050565b6000806000806000608086880312156125835761258261201a565b5b6000612591888289016124ed565b955050602086013567ffffffffffffffff8111156125b2576125b161201f565b5b6125be88828901612511565b945094505060406125d18882890161210c565b92505060606125e28882890161210c565b9150509295509295909350565b6125f881612205565b82525050565b600060208201905061261360008301846125ef565b92915050565b60008083601f84011261262f5761262e612502565b5b8235905067ffffffffffffffff81111561264c5761264b612507565b5b6020830191508360208202830111156126685761266761250c565b5b9250929050565b600080602083850312156126865761268561201a565b5b600083013567ffffffffffffffff8111156126a4576126a361201f565b5b6126b085828601612619565b92509250509250929050565b60006126c7826121b7565b9050919050565b6126d7816126bc565b82525050565b60006020820190506126f260008301846126ce565b92915050565b60006020828403121561270e5761270d61201a565b5b600061271c848285016120d6565b91505092915050565b600060408201905061273a6000830185612161565b6127476020830184612161565b9392505050565b6127578161247a565b811461276257600080fd5b50565b6000813590506127748161274e565b92915050565b600080604083850312156127915761279061201a565b5b600061279f8582860161222e565b92505060206127b085828601612765565b9150509250929050565b6127c381612024565b82525050565b60006020820190506127de60008301846127ba565b92915050565b600082825260208201905092915050565b7f4f6e6c79206465706c6f79657200000000000000000000000000000000000000600082015250565b600061282b600d836127e4565b9150612836826127f5565b602082019050919050565b6000602082019050818103600083015261285a8161281e565b9050919050565b61286a816120ad565b82525050565b60006040820190506128856000830185612861565b6128926020830184612161565b9392505050565b6000815190506128a8816120f5565b92915050565b6000602082840312156128c4576128c361201a565b5b60006128d284828501612899565b91505092915050565b60006040820190506128f060008301856125ef565b6128fd6020830184612161565b9392505050565b6000815190506129138161274e565b92915050565b60006020828403121561292f5761292e61201a565b5b600061293d84828501612904565b91505092915050565b7f5472616e73666572206661696c65640000000000000000000000000000000000600082015250565b600061297c600f836127e4565b915061298782612946565b602082019050919050565b600060208201905081810360008301526129ab8161296f565b9050919050565b7f4163636f756e74206e6f7420617070726f766564000000000000000000000000600082015250565b60006129e86014836127e4565b91506129f3826129b2565b602082019050919050565b60006020820190508181036000830152612a17816129db565b9050919050565b7f496e76616c696420616d6f756e74000000000000000000000000000000000000600082015250565b6000612a54600e836127e4565b9150612a5f82612a1e565b602082019050919050565b60006020820190508181036000830152612a8381612a47565b9050919050565b6000606082019050612a9f60008301866125ef565b612aac60208301856125ef565b612ab96040830184612161565b949350505050565b7f4e487b7100000000000000000000000000000000000000000000000000000000600052601160045260246000fd5b6000612afb826120eb565b9150612b06836120eb565b9250828202612b14816120eb565b91508282048414831517612b2b57612b2a612ac1565b5b5092915050565b7f4e487b7100000000000000000000000000000000000000000000000000000000600052601260045260246000fd5b6000612b6c826120eb565b9150612b77836120eb565b925082612b8757612b86612b32565b5b828204905092915050565b6000612b9d826120eb565b9150612ba8836120eb565b9250828201905080821115612bc057612bbf612ac1565b5b92915050565b7f496e76616c696420636f6e666967000000000000000000000000000000000000600082015250565b6000612bfc600e836127e4565b9150612c0782612bc6565b602082019050919050565b60006020820190508181036000830152612c2b81612bef565b9050919050565b7f496e76616c696420726174650000000000000000000000000000000000000000600082015250565b6000612c68600c836127e4565b9150612c7382612c32565b602082019050919050565b60006020820190508181036000830152612c9781612c5b565b9050919050565b7f4e487b7100000000000000000000000000000000000000000000000000000000600052603260045260246000fd5b6000602082019050612ce26000830184612861565b92915050565b7f496e76616c6964206163636f756e740000000000000000000000000000000000600082015250565b6000612d1e600f836127e4565b9150612d2982612ce8565b602082019050919050565b60006020820190508181036000830152612d4d81612d11565b9050919050565b7f53656e646572206e6f7420456e747279506f696e740000000000000000000000600082015250565b6000612d8a6015836127e4565b9150612d9582612d54565b602082019050919050565b60006020820190508181036000830152612db981612d7d565b9050919050565b7f47617320707269636520746f6f20686967680000000000000000000000000000600082015250565b6000612df66012836127e4565b9150612e0182612dc0565b602082019050919050565b60006020820190508181036000830152612e2581612de9565b9050919050565b6000612e37826120eb565b9150612e42836120eb565b9250828203905081811115612e5a57612e59612ac1565b5b92915050565b7f4e487b7100000000000000000000000000000000000000000000000000000000600052602160045260246000fd5b6000612e9a826120eb565b91507fffffffffffffffffffffffffffffffffffffffffffffffffffffffffffffffff8203612ecc57612ecb612ac1565b5b60018201905091905056fea26469706673582212203432c66cbd24507e5edcd571531d4391e8b36087595fbe5ac56b90cefcae43d764736f6c634300081c0033",
  "linkReferences": {},
  "deployedLinkReferences": {}
}