{
  "_format": "hh-sol-artifact-1",
  "contractName": "AccountFactory",
  "sourceName": "contracts/AccountFactory.sol",
  "abi": [
    {
      "inputs": [
        {
          "internalType": "address",
          "name": "_accountImplementation",
          "type": "address"
        },
        {
          "internalType": "address",
          "name": "_entryPoint",
          "type": "address"
        },
        {
          "internalType": "address",
          "name": "_privacyTree",
          "type": "address"
        }
      ],
      "stateMutability": "nonpayable",
      "type": "constructor"
    },
    {
      "inputs": [],
      "name": "Create2EmptyBytecode",
      "type": "error"
    },
    {
      "inputs": [],
      "name": "FailedDeployment",
      "type": "error"
    },
    {
      "inputs": [
        {
          "internalType": "uint256",
          "name": "balance",
          "type": "uint256"
        },
        {
          "internalType": "uint256",
          "name": "needed",
          "type": "uint256"
        }
      ],
      "name": "InsufficientBalance",
      "type": "error"
    },
    {
      "inputs": [
        {
          "internalType": "address",
          "name": "owner",
          "type": "address"
        }
      ],
      "name": "OwnableInvalidOwner",
      "type": "error"
    },
    {
      "inputs": [
        {
          "internalType": "address",
          "name": "account",
          "type": "address"
        }
      ],
      "name": "OwnableUnauthorizedAccount",
      "type": "error"
    },
    {
      "anonymous": false,
      "inputs": [
        {
          "indexed": true,
          "internalType": "address",
          "name": "owner",
          "type": "address"
        },
        {
          "indexed": true,
          "internalType": "address",
          "name": "account",
          "type": "address"
        },
        {
          "indexed": false,
          "internalType": "uint256",
          "name": "salt",
          "type": "uint256"
        }
      ],
      "name": "AccountCreated",
      "type": "event"
    },
    {
      "anonymous": false,
      "inputs": [
        {
          "indexed": true,
          "internalType": "address",
          "name": "previousOwner",
          "type": "address"
        },
        {
          "indexed": true,
          "internalType": "address",
          "name": "newOwner",
          "type": "address"
        }
      ],
      "name": "OwnershipTransferred",
      "type": "event"
    },
    {
      "anonymous": false,
      "inputs": [
        {
          "indexed": true,
          "internalType": "address",
          "name": "oldTree",
          "type": "address"
        },
        {
          "indexed": true,
          "internalType": "address",
          "name": "newTree",
          "type": "address"
        }
      ],
      "name": "PrivacyTreeUpdated",
      "type": "event"
    },
    {
      "inputs": [],
      "name": "accountImplementation",
      "outputs": [
        {
          "internalType": "address",
          "name": "",
          "type": "address"
        }
      ],
      "stateMutability": "view",
      "type": "function"
    },
    {
      "inputs": [
        {
          "internalType": "uint256",
          "name": "",
          "type": "uint256"
        }
      ],
      "name": "allAccounts",
      "outputs": [
        {
          "internalType": "address",
          "name": "",
          "type": "address"
        }
      ],
      "stateMutability": "view",
      "type": "function"
    },
    {
      "inputs": [
        {
          "internalType": "address[]",
          "name": "owners",
          "type": "address[]"
        },
        {
          "internalType": "uint256[]",
          "name": "salts",
          "type": "uint256[]"
        }
      ],
      "name": "batchCreateAccounts",
      "outputs": [
        {
          "internalType": "address[]",
          "name": "accounts",
          "type": "address[]"
        }
      ],
      "stateMutability": "nonpayable",
      "type": "function"
    },
    {
      "inputs": [
        {
          "internalType": "address",
          "name": "owner",
          "type": "address"
        },
        {
          "internalType": "uint256",
          "name": "salt",
          "type": "uint256"
        }
      ],
      "name": "createAccount",
      "outputs": [
        {
          "internalType": "address",
          "name": "account",
          "type": "address"
        }
      ],
      "stateMutability": "nonpayable",
      "type": "function"
    },
    {
      "inputs": [],
      "name": "entryPoint",
      "outputs": [
        {
          "internalType": "address",
          "name": "",
          "type": "address"
        }
      ],
      "stateMutability": "view",
      "type": "function"
    },
    {
      "inputs": [],
      "name": "getAccountCount",
      "outputs": [
        {
          "internalType": "uint256",
          "name": "",
          "type": "uint256"
        }
      ],
      "stateMutability": "view",
      "type": "function"
    },
    {
      "inputs": [
        {
          "internalType": "address",
          "name": "owner",
          "type": "address"
        }
      ],
      "name": "getAccountForOwner",
      "outputs": [
        {
          "internalType": "address",
          "name": "",
          "type": "address"
        }
      ],
      "stateMutability": "view",
      "type": "function"
    },
    {
      "inputs": [
        {
          "internalType": "address",
          "name": "owner",
          "type": "address"
        },
        {
          "internalType": "uint256",
          "name": "salt",
          "type": "uint256"
        }
      ],
      "name": "getAddress",
      "outputs": [
        {
          "internalType": "address",
          "name": "",
          "type": "address"
        }
      ],
      "stateMutability": "view",
      "type": "function"
    },
    {
      "inputs": [],
      "name": "getAllAccounts",
      "outputs": [
        {
          "internalType": "address[]",
          "name": "",
          "type": "address[]"
        }
      ],
      "stateMutability": "view",
      "type": "function"
    },
    {
      "inputs": [
        {
          "internalType": "address",
          "name": "",
          "type": "address"
        }
      ],
      "name": "isAccount",
      "outputs": [
        {
          "internalType": "bool",
          "name": "",
          "type": "bool"
        }
      ],
      "stateMutability": "view",
      "type": "function"
    },
    {
      "inputs": [],
      "name": "owner",
      "outputs": [
        {
          "internalType": "address",
          "name": "",
          "type": "address"
        }
      ],
      "stateMutability": "view",
      "type": "function"
    },
    {
      "inputs": [
        {
          "internalType": "address",
          "name": "",
          "type": "address"
        }
      ],
      "name": "ownerToAccount",
      "outputs": [
        {
          "internalType": "address",
          "name": "",
          "type": "address"
        }
      ],
      "stateMutability": "view",
      "type": "function"
    },
    {
      "inputs": [],
      "name": "privacyTreeContract",
      "outputs": [
        {
          "internalType": "address",
          "name": "",
          "type": "address"
        }
      ],
      "stateMutability": "view",
      "type": "function"
    },
    {
      "inputs": [],
      "name": "renounceOwnership",
      "outputs": [],
      "stateMutability": "nonpayable",
      "type": "function"
    },
    {
      "inputs": [
        {
          "internalType": "address",
          "name": "newOwner",
          "type": "address"
        }
      ],
      "name": "transferOwnership",
      "outputs": [],
      "stateMutability": "nonpayable",
      "type": "function"
    },
    {
      "inputs": [
        {
          "internalType": "address",
          "name": "_newPrivacyTree",
          "type": "address"
        }
      ],
      "name": "updatePrivacyTree",
      "outputs": [],
      "stateMutability": "nonpayable",
      "type": "function"
    }
  ],
  "bytecode": "0x60c060405234801561001057600080fd5b5060405161211f38038061211f8339818101604052810190610032919061036b565b33600073ffffffffffffffffffffffffffffffffffffffff168173ffffffffffffffffffffffffffffffffffffffff16036100a55760006040517f1e4fbdf700000000000000000000000000000000000000000000000000000000815260040161009c91906103cd565b60405180910390fd5b6100b48161024460201b60201c565b50600073ffffffffffffffffffffffffffffffffffffffff168373ffffffffffffffffffffffffffffffffffffffff1603610124576040517f08c379a000000000000000000000000000000000000000000000000000000000815260040161011b90610445565b60405180910390fd5b600073ffffffffffffffffffffffffffffffffffffffff168273ffffffffffffffffffffffffffffffffffffffff1603610193576040517f08c379a000000000000000000000000000000000000000000000000000000000815260040161018a906104b1565b60405180910390fd5b8273ffffffffffffffffffffffffffffffffffffffff1660808173ffffffffffffffffffffffffffffffffffffffff16815250508173ffffffffffffffffffffffffffffffffffffffff1660a08173ffffffffffffffffffffffffffffffffffffffff168152505080600160006101000a81548173ffffffffffffffffffffffffffffffffffffffff021916908373ffffffffffffffffffffffffffffffffffffffff1602179055505050506104d1565b60008060009054906101000a900473ffffffffffffffffffffffffffffffffffffffff169050816000806101000a81548173ffffffffffffffffffffffffffffffffffffffff021916908373ffffffffffffffffffffffffffffffffffffffff1602179055508173ffffffffffffffffffffffffffffffffffffffff168173ffffffffffffffffffffffffffffffffffffffff167f8be0079c531659141344cd1fd0a4f28419497f9722a3daafe3b4186f6b6457e060405160405180910390a35050565b600080fd5b600073ffffffffffffffffffffffffffffffffffffffff82169050919050565b60006103388261030d565b9050919050565b6103488161032d565b811461035357600080fd5b50565b6000815190506103658161033f565b92915050565b60008060006060848603121561038457610383610308565b5b600061039286828701610356565b93505060206103a386828701610356565b92505060406103b486828701610356565b9150509250925092565b6103c78161032d565b82525050565b60006020820190506103e260008301846103be565b92915050565b600082825260208201905092915050565b7f496e76616c696420696d706c656d656e746174696f6e00000000000000000000600082015250565b600061042f6016836103e8565b915061043a826103f9565b602082019050919050565b6000602082019050818103600083015261045e81610422565b9050919050565b7f496e76616c696420656e747279506f696e740000000000000000000000000000600082015250565b600061049b6012836103e8565b91506104a682610465565b602082019050919050565b600060208201905081810360008301526104ca8161048e565b9050919050565b60805160a051611c0d6105126000396000818161076301528181610bea0152610cfc0152600081816103db015281816107420152610bc90152611c0d6000f3fe608060405234801561001057600080fd5b50600436106101005760003560e01c8063856a372f11610097578063a98e4e7711610066578063a98e4e77146102c3578063b0d691fe146102e1578063e04cec2e146102ff578063f2fde38b1461032f57610100565b8063856a372f1461023b5780638cb84e18146102575780638ce4c28c146102875780638da5cb5b146102a557610100565b806325ca4c9c116100d357806325ca4c9c146101a15780635fbfb9cf146101d15780636c3fda1d14610201578063715018a61461023157610100565b806308e93d0a1461010557806311464fbe146101235780631620768f146101415780632413cab614610171575b600080fd5b61010d61034b565b60405161011a919061116d565b60405180910390f35b61012b6103d9565b604051610138919061119e565b60405180910390f35b61015b6004803603810190610156919061127e565b6103fd565b604051610168919061116d565b60405180910390f35b61018b6004803603810190610186919061132b565b6105c4565b604051610198919061119e565b60405180910390f35b6101bb60048036038101906101b6919061132b565b61062d565b6040516101c89190611373565b60405180910390f35b6101eb60048036038101906101e691906113c4565b61064d565b6040516101f8919061119e565b60405180910390f35b61021b60048036038101906102169190611404565b610a10565b604051610228919061119e565b60405180910390f35b610239610a4f565b005b6102556004803603810190610250919061132b565b610a63565b005b610271600480360381019061026c91906113c4565b610ba0565b60405161027e919061119e565b60405180910390f35b61028f610c9e565b60405161029c919061119e565b60405180910390f35b6102ad610cc4565b6040516102ba919061119e565b60405180910390f35b6102cb610ced565b6040516102d89190611440565b60405180910390f35b6102e9610cfa565b6040516102f6919061119e565b60405180910390f35b6103196004803603810190610314919061132b565b610d1e565b604051610326919061119e565b60405180910390f35b6103496004803603810190610344919061132b565b610d51565b005b606060048054806020026020016040519081016040528092919081815260200182805480156103cf57602002820191906000526020600020905b8160009054906101000a900473ffffffffffffffffffffffffffffffffffffffff1673ffffffffffffffffffffffffffffffffffffffff1681526020019060010190808311610385575b5050505050905090565b7f000000000000000000000000000000000000000000000000000000000000000081565b6060828290508585905014610447576040517f08c379a000000000000000000000000000000000000000000000000000000000815260040161043e906114b8565b60405180910390fd5b8484905067ffffffffffffffff811115610464576104636114d8565b5b6040519080825280602002602001820160405280156104925781602001602082028036833780820191505090505b50905060005b858590508110156105bb573073ffffffffffffffffffffffffffffffffffffffff16635fbfb9cf8787848181106104d2576104d1611507565b5b90506020020160208101906104e7919061132b565b8686858181106104fa576104f9611507565b5b905060200201356040518363ffffffff1660e01b815260040161051e929190611536565b6020604051808303816000875af115801561053d573d6000803e3d6000fd5b505050506040513d601f19601f820116820180604052508101906105619190611574565b82828151811061057457610573611507565b5b602002602001019073ffffffffffffffffffffffffffffffffffffffff16908173ffffffffffffffffffffffffffffffffffffffff16815250508080600101915050610498565b50949350505050565b6000600260008373ffffffffffffffffffffffffffffffffffffffff1673ffffffffffffffffffffffffffffffffffffffff16815260200190815260200160002060009054906101000a900473ffffffffffffffffffffffffffffffffffffffff169050919050565b60036020528060005260406000206000915054906101000a900460ff1681565b60008073ffffffffffffffffffffffffffffffffffffffff168373ffffffffffffffffffffffffffffffffffffffff16036106bd576040517f08c379a00000000000000000000000000000000000000000000000000000000081526004016106b4906115ed565b60405180910390fd5b6106c78383610ba0565b9050600360008273ffffffffffffffffffffffffffffffffffffffff1673ffffffffffffffffffffffffffffffffffffffff16815260200190815260200160002060009054906101000a900460ff16610a0a5760006040518060200161072c90611070565b6020820181038252601f19601f820116604052507f00000000000000000000000000000000000000000000000000000000000000007f000000000000000000000000000000000000000000000000000000000000000060405160200161079392919061160d565b6040516020818303038152906040526040516020016107b39291906116a7565b60405160208183030381529060405290506107d960006107d38686610dd7565b83610e0a565b91508173ffffffffffffffffffffffffffffffffffffffff1663485cc95585600160009054906101000a900473ffffffffffffffffffffffffffffffffffffffff166040518363ffffffff1660e01b815260040161083892919061160d565b600060405180830381600087803b15801561085257600080fd5b505af1158015610866573d6000803e3d6000fd5b5050505081600260008673ffffffffffffffffffffffffffffffffffffffff1673ffffffffffffffffffffffffffffffffffffffff16815260200190815260200160002060006101000a81548173ffffffffffffffffffffffffffffffffffffffff021916908373ffffffffffffffffffffffffffffffffffffffff1602179055506001600360008473ffffffffffffffffffffffffffffffffffffffff1673ffffffffffffffffffffffffffffffffffffffff16815260200190815260200160002060006101000a81548160ff0219169083151502179055506004829080600181540180825580915050600190039060005260206000200160009091909190916101000a81548173ffffffffffffffffffffffffffffffffffffffff021916908373ffffffffffffffffffffffffffffffffffffffff1602179055508173ffffffffffffffffffffffffffffffffffffffff168473ffffffffffffffffffffffffffffffffffffffff167f33310a89c32d8cc00057ad6ef6274d2f8fe22389a992cf89983e09fc84f6cfff85604051610a009190611440565b60405180910390a3505b92915050565b60048181548110610a2057600080fd5b906000526020600020016000915054906101000a900473ffffffffffffffffffffffffffffffffffffffff1681565b610a57610f1d565b610a616000610fa4565b565b610a6b610f1d565b600073ffffffffffffffffffffffffffffffffffffffff168173ffffffffffffffffffffffffffffffffffffffff1603610ada576040517f08c379a0000000000000000000000000000000000000000000000000000000008152600401610ad190611717565b60405180910390fd5b6000600160009054906101000a900473ffffffffffffffffffffffffffffffffffffffff16905081600160006101000a81548173ffffffffffffffffffffffffffffffffffffffff021916908373ffffffffffffffffffffffffffffffffffffffff1602179055508173ffffffffffffffffffffffffffffffffffffffff168173ffffffffffffffffffffffffffffffffffffffff167f15ceb7bc42117f0ce7707000e010f6ee0ec04305ed87a446a2ad99cb5198e54560405160405180910390a35050565b60008060405180602001610bb390611070565b6020820181038252601f19601f820116604052507f00000000000000000000000000000000000000000000000000000000000000007f0000000000000000000000000000000000000000000000000000000000000000604051602001610c1a92919061160d565b604051602081830303815290604052604051602001610c3a9291906116a7565b604051602081830303815290604052805190602001209050600060ff60f81b30610c648787610dd7565b84604051602001610c7894939291906117f7565b6040516020818303038152906040528051906020012090508060001c9250505092915050565b600160009054906101000a900473ffffffffffffffffffffffffffffffffffffffff1681565b60008060009054906101000a900473ffffffffffffffffffffffffffffffffffffffff16905090565b6000600480549050905090565b7f000000000000000000000000000000000000000000000000000000000000000081565b60026020528060005260406000206000915054906101000a900473ffffffffffffffffffffffffffffffffffffffff1681565b610d59610f1d565b600073ffffffffffffffffffffffffffffffffffffffff168173ffffffffffffffffffffffffffffffffffffffff1603610dcb5760006040517f1e4fbdf7000000000000000000000000000000000000000000000000000000008152600401610dc2919061119e565b60405180910390fd5b610dd481610fa4565b50565b60008282604051602001610dec929190611866565b60405160208183030381529060405280519060200120905092915050565b600083471015610e535747846040517fcf479181000000000000000000000000000000000000000000000000000000008152600401610e4a929190611892565b60405180910390fd5b6000825103610e8e576040517f4ca249dc00000000000000000000000000000000000000000000000000000000815260040160405180910390fd5b8282516020840186f590503d151981151615610eb0576040513d6000823e3d81fd5b600073ffffffffffffffffffffffffffffffffffffffff168173ffffffffffffffffffffffffffffffffffffffff1603610f16576040517fb06ebf3d00000000000000000000000000000000000000000000000000000000815260040160405180910390fd5b9392505050565b610f25611068565b73ffffffffffffffffffffffffffffffffffffffff16610f43610cc4565b73ffffffffffffffffffffffffffffffffffffffff1614610fa257610f66611068565b6040517f118cdaa7000000000000000000000000000000000000000000000000000000008152600401610f99919061119e565b60405180910390fd5b565b60008060009054906101000a900473ffffffffffffffffffffffffffffffffffffffff169050816000806101000a81548173ffffffffffffffffffffffffffffffffffffffff021916908373ffffffffffffffffffffffffffffffffffffffff1602179055508173ffffffffffffffffffffffffffffffffffffffff168173ffffffffffffffffffffffffffffffffffffffff167f8be0079c531659141344cd1fd0a4f28419497f9722a3daafe3b4186f6b6457e060405160405180910390a35050565b600033905090565b61031c806118bc83390190565b600081519050919050565b600082825260208201905092915050565b6000819050602082019050919050565b600073ffffffffffffffffffffffffffffffffffffffff82169050919050565b60006110d4826110a9565b9050919050565b6110e4816110c9565b82525050565b60006110f683836110db565b60208301905092915050565b6000602082019050919050565b600061111a8261107d565b6111248185611088565b935061112f83611099565b8060005b8381101561116057815161114788826110ea565b975061115283611102565b925050600181019050611133565b5085935050505092915050565b60006020820190508181036000830152611187818461110f565b905092915050565b611198816110c9565b82525050565b60006020820190506111b3600083018461118f565b92915050565b600080fd5b600080fd5b600080fd5b600080fd5b600080fd5b60008083601f8401126111e8576111e76111c3565b5b8235905067ffffffffffffffff811115611205576112046111c8565b5b602083019150836020820283011115611221576112206111cd565b5b9250929050565b60008083601f84011261123e5761123d6111c3565b5b8235905067ffffffffffffffff81111561125b5761125a6111c8565b5b602083019150836020820283011115611277576112766111cd565b5b9250929050565b60008060008060408587031215611298576112976111b9565b5b600085013567ffffffffffffffff8111156112b6576112b56111be565b5b6112c2878288016111d2565b9450945050602085013567ffffffffffffffff8111156112e5576112e46111be565b5b6112f187828801611228565b925092505092959194509250565b611308816110c9565b811461131357600080fd5b50565b600081359050611325816112ff565b92915050565b600060208284031215611341576113406111b9565b5b600061134f84828501611316565b91505092915050565b60008115159050919050565b61136d81611358565b82525050565b60006020820190506113886000830184611364565b92915050565b6000819050919050565b6113a18161138e565b81146113ac57600080fd5b50565b6000813590506113be81611398565b92915050565b600080604083850312156113db576113da6111b9565b5b60006113e985828601611316565b92505060206113fa858286016113af565b9150509250929050565b60006020828403121561141a576114196111b9565b5b6000611428848285016113af565b91505092915050565b61143a8161138e565b82525050565b60006020820190506114556000830184611431565b92915050565b600082825260208201905092915050565b7f4c656e677468206d69736d617463680000000000000000000000000000000000600082015250565b60006114a2600f8361145b565b91506114ad8261146c565b602082019050919050565b600060208201905081810360008301526114d181611495565b9050919050565b7f4e487b7100000000000000000000000000000000000000000000000000000000600052604160045260246000fd5b7f4e487b7100000000000000000000000000000000000000000000000000000000600052603260045260246000fd5b600060408201905061154b600083018561118f565b6115586020830184611431565b9392505050565b60008151905061156e816112ff565b92915050565b60006020828403121561158a576115896111b9565b5b60006115988482850161155f565b91505092915050565b7f496e76616c6964206f776e657200000000000000000000000000000000000000600082015250565b60006115d7600d8361145b565b91506115e2826115a1565b602082019050919050565b60006020820190508181036000830152611606816115ca565b9050919050565b6000604082019050611622600083018561118f565b61162f602083018461118f565b9392505050565b600081519050919050565b600081905092915050565b60005b8381101561166a57808201518184015260208101905061164f565b60008484015250505050565b600061168182611636565b61168b8185611641565b935061169b81856020860161164c565b80840191505092915050565b60006116b38285611676565b91506116bf8284611676565b91508190509392505050565b7f496e76616c696420616464726573730000000000000000000000000000000000600082015250565b6000611701600f8361145b565b915061170c826116cb565b602082019050919050565b60006020820190508181036000830152611730816116f4565b9050919050565b60007fff0000000000000000000000000000000000000000000000000000000000000082169050919050565b6000819050919050565b61177e61177982611737565b611763565b82525050565b60008160601b9050919050565b600061179c82611784565b9050919050565b60006117ae82611791565b9050919050565b6117c66117c1826110c9565b6117a3565b82525050565b6000819050919050565b6000819050919050565b6117f16117ec826117cc565b6117d6565b82525050565b6000611803828761176d565b60018201915061181382866117b5565b60148201915061182382856117e0565b60208201915061183382846117e0565b60208201915081905095945050505050565b6000819050919050565b61186061185b8261138e565b611845565b82525050565b600061187282856117b5565b601482019150611882828461184f565b6020820191508190509392505050565b60006040820190506118a76000830185611431565b6118b46020830184611431565b939250505056fe60c060405234801561001057600080fd5b5060405161031c38038061031c83398181016040528101906100329190610104565b8173ffffffffffffffffffffffffffffffffffffffff1660808173ffffffffffffffffffffffffffffffffffffffff16815250508073ffffffffffffffffffffffffffffffffffffffff1660a08173ffffffffffffffffffffffffffffffffffffffff16815250505050610144565b600080fd5b600073ffffffffffffffffffffffffffffffffffffffff82169050919050565b60006100d1826100a6565b9050919050565b6100e1816100c6565b81146100ec57600080fd5b50565b6000815190506100fe816100d8565b92915050565b6000806040838503121561011b5761011a6100a1565b5b6000610129858286016100ef565b925050602061013a858286016100ef565b9150509250929050565b60805160a0516101af61016d600039600060fb0152600081816038015260d701526101af6000f3fe60806040526004361061002d5760003560e01c80635c60da1b1461007f578063b0d691fe146100aa57610034565b3661003457005b60007f000000000000000000000000000000000000000000000000000000000000000090503660008037600080366000845af43d6000803e806000811461007a573d6000f35b3d6000fd5b34801561008b57600080fd5b506100946100d5565b6040516100a1919061015e565b60405180910390f35b3480156100b657600080fd5b506100bf6100f9565b6040516100cc919061015e565b60405180910390f35b7f000000000000000000000000000000000000000000000000000000000000000081565b7f000000000000000000000000000000000000000000000000000000000000000081565b600073ffffffffffffffffffffffffffffffffffffffff82169050919050565b60006101488261011d565b9050919050565b6101588161013d565b82525050565b6000602082019050610173600083018461014f565b9291505056fea26469706673582212206086f4aa49ab6592f65edc64171a5a8413af8afe87d2d1c52d3e5f26a900c62564736f6c634300081c0033a264697066735822122061993622ba541915feb10e3b3aa1c3ba4f8c3275eb2f1a38ccd835dc129fc3b164736f6c634300081c0033",
  "linkReferences": {},
  "deployedLinkReferences": {}
}