{
  "_format": "hh-sol-artifact-1",
  "contractName": "PrivacyMerkleTree",
  "sourceName": "contracts/PrivacyMerkleTree.sol",
  "abi": [
    {
      "inputs": [
        {
          "internalType": "address",
          "name": "_usdc",
          "type": "address"
        },
        {
          "internalType": "address",
          "name": "_verifier",
          "type": "address"
        },
        {
          "internalType": "address",
          "name": "_feeRecipient",
          "type": "address"
        }
      ],
      "stateMutability": "nonpayable",
      "type": "constructor"
    },
    {
      "inputs": [
        {
          "internalType": "address",
          "name": "owner",
          "type": "address"
        }
      ],
      "name": "OwnableInvalidOwner",
      "type": "error"
    },
    {
      "inputs": [
        {
          "internalType": "address",
          "name": "account",
          "type": "address"
        }
      ],
      "name": "OwnableUnauthorizedAccount",
      "type": "error"
    },
    {
      "inputs": [],
      "name": "ReentrancyGuardReentrantCall",
      "type": "error"
    },
    {
      "anonymous": false,
      "inputs": [
        {
          "indexed": true,
          "internalType": "bytes32",
          "name": "commitment",
          "type": "bytes32"
        },
        {
          "indexed": false,
          "internalType": "uint256",
          "name": "leafIndex",
          "type": "uint256"
        },
        {
          "indexed": false,
          "internalType": "uint256",
          "name": "amount",
          "type": "uint256"
        },
        {
          "indexed": false,
          "internalType": "uint256",
          "name": "timestamp",
          "type": "uint256"
        }
      ],
      "name": "Deposit",
      "type": "event"
    },
    {
      "anonymous": false,
      "inputs": [
        {
          "indexed": false,
          "internalType": "uint256",
          "name": "depositFee",
          "type": "uint256"
        },
        {
          "indexed": false,
          "internalType": "uint256",
          "name": "withdrawFee",
          "type": "uint256"
        }
      ],
      "name": "FeesUpdated",
      "type": "event"
    },
    {
      "anonymous": false,
      "inputs": [
        {
          "indexed": true,
          "internalType": "address",
          "name": "previousOwner",
          "type": "address"
        },
        {
          "indexed": true,
          "internalType": "address",
          "name": "newOwner",
          "type": "address"
        }
      ],
      "name": "OwnershipTransferred",
      "type": "event"
    },
    {
      "anonymous": false,
      "inputs": [
        {
          "indexed": true,
          "internalType": "bytes32",
          "name": "oldRoot",
          "type": "bytes32"
        },
        {
          "indexed": true,
          "internalType": "bytes32",
          "name": "newRoot",
          "type": "bytes32"
        },
        {
          "indexed": false,
          "internalType": "uint256",
          "name": "leafIndex",
          "type": "uint256"
        }
      ],
      "name": "RootUpdated",
      "type": "event"
    },
    {
      "anonymous": false,
      "inputs": [
        {
          "indexed": true,
          "internalType": "address",
          "name": "oldVerifier",
          "type": "address"
        },
        {
          "indexed": true,
          "internalType": "address",
          "name": "newVerifier",
          "type": "address"
        }
      ],
      "name": "VerifierUpdated",
      "type": "event"
    },
    {
      "anonymous": false,
      "inputs": [
        {
          "indexed": true,
          "internalType": "address",
          "name": "recipient",
          "type": "address"
        },
        {
          "indexed": false,
          "internalType": "uint256",
          "name": "amount",
          "type": "uint256"
        },
        {
          "indexed": false,
          "internalType": "bytes32",
          "name": "nullifier",
          "type": "bytes32"
        },
        {
          "indexed": false,
          "internalType": "uint256",
          "name": "timestamp",
          "type": "uint256"
        }
      ],
      "name": "Withdraw",
      "type": "event"
    },
    {
      "inputs": [],
      "name": "MAX_LEAVES",
      "outputs": [
        {
          "internalType": "uint256",
          "name": "",
          "type": "uint256"
        }
      ],
      "stateMutability": "view",
      "type": "function"
    },
    {
      "inputs": [],
      "name": "TREE_DEPTH",
      "outputs": [
        {
          "internalType": "uint256",
          "name": "",
          "type": "uint256"
        }
      ],
      "stateMutability": "view",
      "type": "function"
    },
    {
      "inputs": [],
      "name": "ZERO_VALUE",
      "outputs": [
        {
          "internalType": "uint256",
          "name": "",
          "type": "uint256"
        }
      ],
      "stateMutability": "view",
      "type": "function"
    },
    {
      "inputs": [
        {
          "internalType": "uint256",
          "name": "",
          "type": "uint256"
        }
      ],
      "name": "commitments",
      "outputs": [
        {
          "internalType": "bytes32",
          "name": "",
          "type": "bytes32"
        }
      ],
      "stateMutability": "view",
      "type": "function"
    },
    {
      "inputs": [],
      "name": "currentRootIndex",
      "outputs": [
        {
          "internalType": "uint256",
          "name": "",
          "type": "uint256"
        }
      ],
      "stateMutability": "view",
      "type": "function"
    },
    {
      "inputs": [
        {
          "internalType": "bytes32",
          "name": "_commitment",
          "type": "bytes32"
        },
        {
          "internalType": "uint256",
          "name": "_amount",
          "type": "uint256"
        }
      ],
      "name": "deposit",
      "outputs": [],
      "stateMutability": "nonpayable",
      "type": "function"
    },
    {
      "inputs": [],
      "name": "depositCount",
      "outputs": [
        {
          "internalType": "uint256",
          "name": "",
          "type": "uint256"
        }
      ],
      "stateMutability": "view",
      "type": "function"
    },
    {
      "inputs": [],
      "name": "depositFee",
      "outputs": [
        {
          "internalType": "uint256",
          "name": "",
          "type": "uint256"
        }
      ],
      "stateMutability": "view",
      "type": "function"
    },
    {
      "inputs": [],
      "name": "feeRecipient",
      "outputs": [
        {
          "internalType": "address",
          "name": "",
          "type": "address"
        }
      ],
      "stateMutability": "view",
      "type": "function"
    },
    {
      "inputs": [],
      "name": "getBalance",
      "outputs": [
        {
          "internalType": "uint256",
          "name": "",
          "type": "uint256"
        }
      ],
      "stateMutability": "view",
      "type": "function"
    },
    {
      "inputs": [],
      "name": "getCurrentRoot",
      "outputs": [
        {
          "internalType": "bytes32",
          "name": "",
          "type": "bytes32"
        }
      ],
      "stateMutability": "view",
      "type": "function"
    },
    {
      "inputs": [],
      "name": "getRootHistory",
      "outputs": [
        {
          "internalType": "bytes32[100]",
          "name": "",
          "type": "bytes32[100]"
        }
      ],
      "stateMutability": "view",
      "type": "function"
    },
    {
      "inputs": [],
      "name": "getTreeState",
      "outputs": [
        {
          "internalType": "uint256",
          "name": "leaves",
          "type": "uint256"
        },
        {
          "internalType": "bytes32",
          "name": "root",
          "type": "bytes32"
        },
        {
          "internalType": "uint256",
          "name": "deposited",
          "type": "uint256"
        },
        {
          "internalType": "uint256",
          "name": "withdrawn",
          "type": "uint256"
        }
      ],
      "stateMutability": "view",
      "type": "function"
    },
    {
      "inputs": [
        {
          "internalType": "bytes32",
          "name": "_nullifier",
          "type": "bytes32"
        }
      ],
      "name": "isNullifierSpent",
      "outputs": [
        {
          "internalType": "bool",
          "name": "",
          "type": "bool"
        }
      ],
      "stateMutability": "view",
      "type": "function"
    },
    {
      "inputs": [],
      "name": "nextLeafIndex",
      "outputs": [
        {
          "internalType": "uint256",
          "name": "",
          "type": "uint256"
        }
      ],
      "stateMutability": "view",
      "type": "function"
    },
    {
      "inputs": [
        {
          "internalType": "bytes32",
          "name": "",
          "type": "bytes32"
        }
      ],
      "name": "nullifiers",
      "outputs": [
        {
          "internalType": "bool",
          "name": "",
          "type": "bool"
        }
      ],
      "stateMutability": "view",
      "type": "function"
    },
    {
      "inputs": [],
      "name": "owner",
      "outputs": [
        {
          "internalType": "address",
          "name": "",
          "type": "address"
        }
      ],
      "stateMutability": "view",
      "type": "function"
    },
    {
      "inputs": [],
      "name": "renounceOwnership",
      "outputs": [],
      "stateMutability": "nonpayable",
      "type": "function"
    },
    {
      "inputs": [
        {
          "internalType": "uint256",
          "name": "",
          "type": "uint256"
        }
      ],
      "name": "rootHistory",
      "outputs": [
        {
          "internalType": "bytes32",
          "name": "",
          "type": "bytes32"
        }
      ],
      "stateMutability": "view",
      "type": "function"
    },
    {
      "inputs": [],
      "name": "totalDeposited",
      "outputs": [
        {
          "internalType": "uint256",
          "name": "",
          "type": "uint256"
        }
      ],
      "stateMutability": "view",
      "type": "function"
    },
    {
      "inputs": [],
      "name": "totalWithdrawn",
      "outputs": [
        {
          "internalType": "uint256",
          "name": "",
          "type": "uint256"
        }
      ],
      "stateMutability": "view",
      "type": "function"
    },
    {
      "inputs": [
        {
          "internalType": "address",
          "name": "newOwner",
          "type": "address"
        }
      ],
      "name": "transferOwnership",
      "outputs": [],
      "stateMutability": "nonpayable",
      "type": "function"
    },
    {
      "inputs": [
        {
          "internalType": "uint256",
          "name": "",
          "type": "uint256"
        },
        {
          "internalType": "uint256",
          "name": "",
          "type": "uint256"
        }
      ],
      "name": "tree",
      "outputs": [
        {
          "internalType": "bytes32",
          "name": "",
          "type": "bytes32"
        }
      ],
      "stateMutability": "view",
      "type": "function"
    },
    {
      "inputs": [
        {
          "internalType": "address",
          "name": "_newRecipient",
          "type": "address"
        }
      ],
      "name": "updateFeeRecipient",
      "outputs": [],
      "stateMutability": "nonpayable",
      "type": "function"
    },
    {
      "inputs": [
        {
          "internalType": "uint256",
          "name": "_depositFee",
          "type": "uint256"
        },
        {
          "internalType": "uint256",
          "name": "_withdrawFee",
          "type": "uint256"
        }
      ],
      "name": "updateFees",
      "outputs": [],
      "stateMutability": "nonpayable",
      "type": "function"
    },
    {
      "inputs": [
        {
          "internalType": "address",
          "name": "_newVerifier",
          "type": "address"
        }
      ],
      "name": "updateVerifier",
      "outputs": [],
      "stateMutability": "nonpayable",
      "type": "function"
    },
    {
      "inputs": [],
      "name": "usdc",
      "outputs": [
        {
          "internalType": "contract IERC20",
          "name": "",
          "type": "address"
        }
      ],
      "stateMutability": "view",
      "type": "function"
    },
    {
      "inputs": [],
      "name": "verifier",
      "outputs": [
        {
          "internalType": "contract IVerifier",
          "name": "",
          "type": "address"
        }
      ],
      "stateMutability": "view",
      "type": "function"
    },
    {
      "inputs": [
        {
          "internalType": "uint256[2]",
          "name": "pA",
          "type": "uint256[2]"
        },
        {
          "internalType": "uint256[2][2]",
          "name": "pB",
          "type": "uint256[2][2]"
        },
        {
          "internalType": "uint256[2]",
          "name": "pC",
          "type": "uint256[2]"
        },
        {
          "internalType": "uint256[1]",
          "name": "pubSignals",
          "type": "uint256[1]"
        },
        {
          "internalType": "bytes32",
          "name": "_nullifier",
          "type": "bytes32"
        },
        {
          "internalType": "address",
          "name": "_recipient",
          "type": "address"
        },
        {
          "internalType": "uint256",
          "name": "_amount",
          "type": "uint256"
        },
        {
          "internalType": "uint256",
          "name": "_chainId",
          "type": "uint256"
        }
      ],
      "name": "withdraw",
      "outputs": [],
      "stateMutability": "nonpayable",
      "type": "function"
    },
    {
      "inputs": [],
      "name": "withdrawCount",
      "outputs": [
        {
          "internalType": "uint256",
          "name": "",
          "type": "uint256"
        }
      ],
      "stateMutability": "view",
      "type": "function"
    },
    {
      "inputs": [],
      "name": "withdrawFee",
      "outputs": [
        {
          "internalType": "uint256",
          "name": "",
          "type": "uint256"
        }
      ],
      "stateMutability": "view",
      "type": "function"
    }
  ],
  "bytecode": "0x60a060405234801561001057600080fd5b506040516134e63803806134e6833981810160405281019061003291906104b1565b336001600081905550600073ffffffffffffffffffffffffffffffffffffffff168173ffffffffffffffffffffffffffffffffffffffff16036100ad5760006040517f1e4fbdf70000000000000000000000000000000000000000000000000000000081526004016100a49190610513565b60405180910390fd5b6100bc816102a960201b60201c565b50600073ffffffffffffffffffffffffffffffffffffffff168373ffffffffffffffffffffffffffffffffffffffff160361012c576040517f08c379a00000000000000000000000000000000000000000000000000000000081526004016101239061058b565b60405180910390fd5b600073ffffffffffffffffffffffffffffffffffffffff168273ffffffffffffffffffffffffffffffffffffffff160361019b576040517f08c379a0000000000000000000000000000000000000000000000000000000008152600401610192906105f7565b60405180910390fd5b8273ffffffffffffffffffffffffffffffffffffffff1660808173ffffffffffffffffffffffffffffffffffffffff168152505081600260006101000a81548173ffffffffffffffffffffffffffffffffffffffff021916908373ffffffffffffffffffffffffffffffffffffffff16021790555080607260006101000a81548173ffffffffffffffffffffffffffffffffffffffff021916908373ffffffffffffffffffffffffffffffffffffffff1602179055506000600581905550600a607081905550600a607181905550600061027b600061036f60201b60201c565b905080600760006064811061029357610292610617565b5b01819055506000606b8190555050505050610727565b6000600160009054906101000a900473ffffffffffffffffffffffffffffffffffffffff16905081600160006101000a81548173ffffffffffffffffffffffffffffffffffffffff021916908373ffffffffffffffffffffffffffffffffffffffff1602179055508173ffffffffffffffffffffffffffffffffffffffff168173ffffffffffffffffffffffffffffffffffffffff167f8be0079c531659141344cd1fd0a4f28419497f9722a3daafe3b4186f6b6457e060405160405180910390a35050565b60008082036103d1577f30644e72e131a029b85045b68181585d2833e84879b9709143e1f593f00000017f01b0238ec2b57fd8b28145f345d3a19299084fd1e2b053e80a70e140d8ceca1660001c6103c7919061067f565b60001b9050610449565b60006004600080815260200190815260200160002060008081526020019081526020016000205490506000600190505b6014811161044357600460008281526020019081526020016000206000808152602001908152602001600020549150808061043b906106df565b915050610401565b50809150505b919050565b600080fd5b600073ffffffffffffffffffffffffffffffffffffffff82169050919050565b600061047e82610453565b9050919050565b61048e81610473565b811461049957600080fd5b50565b6000815190506104ab81610485565b92915050565b6000806000606084860312156104ca576104c961044e565b5b60006104d88682870161049c565b93505060206104e98682870161049c565b92505060406104fa8682870161049c565b9150509250925092565b61050d81610473565b82525050565b60006020820190506105286000830184610504565b92915050565b600082825260208201905092915050565b7f496e76616c696420555344430000000000000000000000000000000000000000600082015250565b6000610575600c8361052e565b91506105808261053f565b602082019050919050565b600060208201905081810360008301526105a481610568565b9050919050565b7f496e76616c696420766572696669657200000000000000000000000000000000600082015250565b60006105e160108361052e565b91506105ec826105ab565b602082019050919050565b60006020820190508181036000830152610610816105d4565b9050919050565b7f4e487b7100000000000000000000000000000000000000000000000000000000600052603260045260246000fd5b6000819050919050565b7f4e487b7100000000000000000000000000000000000000000000000000000000600052601260045260246000fd5b600061068a82610646565b915061069583610646565b9250826106a5576106a4610650565b5b828206905092915050565b7f4e487b7100000000000000000000000000000000000000000000000000000000600052601160045260246000fd5b60006106ea82610646565b91507fffffffffffffffffffffffffffffffffffffffffffffffffffffffffffffffff820361071c5761071b6106b0565b5b600182019050919050565b608051612d7a61076c6000396000818161062f015281816107de0152818161092101528181610be20152818161113c0152818161132401526114650152612d7a6000f3fe608060405234801561001057600080fd5b50600436106101e55760003560e01c8063715018a61161010f578063e3327a75116100a2578063f165053611610071578063f165053614610541578063f1c621ee1461055f578063f2fde38b1461058f578063ff50abdc146105ab576101e5565b8063e3327a75146104cd578063e941fa78146104e9578063ec73295914610507578063f160d36914610525576101e5565b80638ea56e2c116100de5780638ea56e2c1461044257806390eeb02b1461046357806397fc007c14610481578063d5a4e3251461049d576101e5565b8063715018a6146103cc57806378c2d335146103d65780638270482d146104065780638da5cb5b14610424576101e5565b80632dfdf0b5116101875780634b319713116101565780634b319713146103565780634cc05a711461037457806367a52793146103925780636db79437146103b0576101e5565b80632dfdf0b5146102cc5780633e413bee146102ea578063469048401461030857806349ce899714610326576101e5565b806312065fe0116101c357806312065fe0146102445780631de26e16146102625780632997e86b1461027e5780632b7ac3f3146102ae576101e5565b8063082febf0146101ea5780630ab176b7146102085780630be4f42214610226575b600080fd5b6101f26105c9565b6040516101ff9190611bf1565b60405180910390f35b6102106105da565b60405161021d9190611cc1565b60405180910390f35b61022e610625565b60405161023b9190611bf1565b60405180910390f35b61024c61062b565b6040516102599190611bf1565b60405180910390f35b61027c60048036038101906102779190611d3a565b6106cc565b005b61029860048036038101906102939190611d7a565b610b94565b6040516102a59190611dc2565b60405180910390f35b6102b6610bb4565b6040516102c39190611e5c565b60405180910390f35b6102d4610bda565b6040516102e19190611bf1565b60405180910390f35b6102f2610be0565b6040516102ff9190611e98565b60405180910390f35b610310610c04565b60405161031d9190611ed4565b60405180910390f35b610340600480360381019061033b9190611eef565b610c2a565b60405161034d9190611f2b565b60405180910390f35b61035e610c42565b60405161036b9190611bf1565b60405180910390f35b61037c610c48565b6040516103899190611bf1565b60405180910390f35b61039a610c4e565b6040516103a79190611bf1565b60405180910390f35b6103ca60048036038101906103c59190611f46565b610c54565b005b6103d4610d31565b005b6103f060048036038101906103eb9190611f46565b610d45565b6040516103fd9190611f2b565b60405180910390f35b61040e610d6a565b60405161041b9190611f2b565b60405180910390f35b61042c610d89565b6040516104399190611ed4565b60405180910390f35b61044a610db3565b60405161045a9493929190611f86565b60405180910390f35b61046b610dd8565b6040516104789190611bf1565b60405180910390f35b61049b60048036038101906104969190611ff7565b610dde565b005b6104b760048036038101906104b29190611d7a565b610f1b565b6040516104c49190611dc2565b60405180910390f35b6104e760048036038101906104e2919061208f565b610f45565b005b6104f16115fb565b6040516104fe9190611bf1565b60405180910390f35b61050f611601565b60405161051c9190611bf1565b60405180910390f35b61053f600480360381019061053a9190611ff7565b611653565b005b61054961170e565b6040516105569190611bf1565b60405180910390f35b61057960048036038101906105749190611eef565b611713565b6040516105869190611f2b565b60405180910390f35b6105a960048036038101906105a49190611ff7565b61172e565b005b6105b36117b4565b6040516105c09190611bf1565b60405180910390f35b601460026105d791906122ac565b81565b6105e2611bb5565b600760648060200260405190810160405280929190826064801561061b576020028201915b815481526020019060010190808311610607575b5050505050905090565b60055481565b60007f000000000000000000000000000000000000000000000000000000000000000073ffffffffffffffffffffffffffffffffffffffff166370a08231306040518263ffffffff1660e01b81526004016106869190611ed4565b602060405180830381865afa1580156106a3573d6000803e3d6000fd5b505050506040513d601f19601f820116820180604052508101906106c7919061230c565b905090565b6106d46117ba565b60008111610717576040517f08c379a000000000000000000000000000000000000000000000000000000000815260040161070e90612396565b60405180910390fd5b6014600261072591906122ac565b60055410610768576040517f08c379a000000000000000000000000000000000000000000000000000000000815260040161075f90612402565b60405180910390fd5b6000801b82036107ad576040517f08c379a00000000000000000000000000000000000000000000000000000000081526004016107a49061246e565b60405180910390fd5b6000612710607054836107c0919061248e565b6107ca91906124ff565b9050600081836107da9190612530565b90507f000000000000000000000000000000000000000000000000000000000000000073ffffffffffffffffffffffffffffffffffffffff166323b872dd3330866040518463ffffffff1660e01b815260040161083993929190612564565b6020604051808303816000875af1158015610858573d6000803e3d6000fd5b505050506040513d601f19601f8201168201806040525081019061087c91906125c7565b6108bb576040517f08c379a00000000000000000000000000000000000000000000000000000000081526004016108b290612640565b60405180910390fd5b60008211801561091a5750600073ffffffffffffffffffffffffffffffffffffffff16607260009054906101000a900473ffffffffffffffffffffffffffffffffffffffff1673ffffffffffffffffffffffffffffffffffffffff1614155b15610a1f577f000000000000000000000000000000000000000000000000000000000000000073ffffffffffffffffffffffffffffffffffffffff1663a9059cbb607260009054906101000a900473ffffffffffffffffffffffffffffffffffffffff16846040518363ffffffff1660e01b815260040161099c929190612660565b6020604051808303816000875af11580156109bb573d6000803e3d6000fd5b505050506040513d601f19601f820116820180604052508101906109df91906125c7565b610a1e576040517f08c379a0000000000000000000000000000000000000000000000000000000008152600401610a15906126d5565b60405180910390fd5b5b60006005549050846003600083815260200190815260200160002081905550846004600080815260200190815260200160002060008381526020019081526020016000208190555060056000815480929190610a7a906126f5565b91905055506000610a89610d6a565b9050610a9482611800565b6000610a9e610d6a565b905060646001606b54610ab1919061273d565b610abb9190612771565b606b81905550806007606b5460648110610ad857610ad76127a2565b5b018190555083606c6000828254610aef919061273d565b92505081905550606e6000815480929190610b09906126f5565b9190505550867faefea07450efad478ebe2bfc47102612d416637dc1b8e0555b6f7507df6c720c848642604051610b42939291906127d1565b60405180910390a280827fcdad51d1d27b433fdb6cbd1aefd9c7e059b11604ee1c1343b50bea6f6662cf8485604051610b7b9190611bf1565b60405180910390a35050505050610b9061192e565b5050565b60066020528060005260406000206000915054906101000a900460ff1681565b600260009054906101000a900473ffffffffffffffffffffffffffffffffffffffff1681565b606e5481565b7f000000000000000000000000000000000000000000000000000000000000000081565b607260009054906101000a900473ffffffffffffffffffffffffffffffffffffffff1681565b60036020528060005260406000206000915090505481565b606d5481565b606f5481565b60705481565b610c5c611938565b6103e8821115610ca1576040517f08c379a0000000000000000000000000000000000000000000000000000000008152600401610c9890612854565b60405180910390fd5b6103e8811115610ce6576040517f08c379a0000000000000000000000000000000000000000000000000000000008152600401610cdd90612854565b60405180910390fd5b81607081905550806071819055507f5c6323bf1c2d7aaea2c091a4751c1c87af7f2864650c336507a77d0557af37a18282604051610d25929190612874565b60405180910390a15050565b610d39611938565b610d4360006119bf565b565b6004602052816000526040600020602052806000526040600020600091509150505481565b60006007606b5460648110610d8257610d816127a2565b5b0154905090565b6000600160009054906101000a900473ffffffffffffffffffffffffffffffffffffffff16905090565b600080600080600554610dc4610d6a565b606c54606d54935093509350935090919293565b606b5481565b610de6611938565b600073ffffffffffffffffffffffffffffffffffffffff168173ffffffffffffffffffffffffffffffffffffffff1603610e55576040517f08c379a0000000000000000000000000000000000000000000000000000000008152600401610e4c906128e9565b60405180910390fd5b6000600260009054906101000a900473ffffffffffffffffffffffffffffffffffffffff16905081600260006101000a81548173ffffffffffffffffffffffffffffffffffffffff021916908373ffffffffffffffffffffffffffffffffffffffff1602179055508173ffffffffffffffffffffffffffffffffffffffff168173ffffffffffffffffffffffffffffffffffffffff167f0243549a92b2412f7a3caf7a2e56d65b8821b91345363faa5f57195384065fcc60405160405180910390a35050565b60006006600083815260200190815260200160002060009054906101000a900460ff169050919050565b610f4d6117ba565b6006600085815260200190815260200160002060009054906101000a900460ff1615610fae576040517f08c379a0000000000000000000000000000000000000000000000000000000008152600401610fa590612955565b60405180910390fd5b600073ffffffffffffffffffffffffffffffffffffffff168373ffffffffffffffffffffffffffffffffffffffff160361101d576040517f08c379a0000000000000000000000000000000000000000000000000000000008152600401611014906129c1565b60405180910390fd5b60008211611060576040517f08c379a000000000000000000000000000000000000000000000000000000000815260040161105790612396565b60405180910390fd5b8046146110a2576040517f08c379a000000000000000000000000000000000000000000000000000000000815260040161109990612a2d565b60405180910390fd5b6000856000600181106110b8576110b76127a2565b5b602002013560001b90506110cb81611a85565b61110a576040517f08c379a000000000000000000000000000000000000000000000000000000000815260040161110190612a99565b60405180910390fd5b60006127106071548561111d919061248e565b61112791906124ff565b9050600081856111379190612530565b9050847f000000000000000000000000000000000000000000000000000000000000000073ffffffffffffffffffffffffffffffffffffffff166370a08231306040518263ffffffff1660e01b81526004016111939190611ed4565b602060405180830381865afa1580156111b0573d6000803e3d6000fd5b505050506040513d601f19601f820116820180604052508101906111d4919061230c565b1015611215576040517f08c379a000000000000000000000000000000000000000000000000000000000815260040161120c90612b05565b60405180910390fd5b600260009054906101000a900473ffffffffffffffffffffffffffffffffffffffff1673ffffffffffffffffffffffffffffffffffffffff166343753b4d8c8c8c8c6040518563ffffffff1660e01b81526004016112769493929190612c0d565b602060405180830381865afa158015611293573d6000803e3d6000fd5b505050506040513d601f19601f820116820180604052508101906112b791906125c7565b6112f6576040517f08c379a00000000000000000000000000000000000000000000000000000000081526004016112ed90612ca0565b60405180910390fd5b60016006600089815260200190815260200160002060006101000a81548160ff0219169083151502179055507f000000000000000000000000000000000000000000000000000000000000000073ffffffffffffffffffffffffffffffffffffffff1663a9059cbb87836040518363ffffffff1660e01b815260040161137d929190612660565b6020604051808303816000875af115801561139c573d6000803e3d6000fd5b505050506040513d601f19601f820116820180604052508101906113c091906125c7565b6113ff576040517f08c379a00000000000000000000000000000000000000000000000000000000081526004016113f690612640565b60405180910390fd5b60008211801561145e5750600073ffffffffffffffffffffffffffffffffffffffff16607260009054906101000a900473ffffffffffffffffffffffffffffffffffffffff1673ffffffffffffffffffffffffffffffffffffffff1614155b15611563577f000000000000000000000000000000000000000000000000000000000000000073ffffffffffffffffffffffffffffffffffffffff1663a9059cbb607260009054906101000a900473ffffffffffffffffffffffffffffffffffffffff16846040518363ffffffff1660e01b81526004016114e0929190612660565b6020604051808303816000875af11580156114ff573d6000803e3d6000fd5b505050506040513d601f19601f8201168201806040525081019061152391906125c7565b611562576040517f08c379a0000000000000000000000000000000000000000000000000000000008152600401611559906126d5565b60405180910390fd5b5b80606d6000828254611575919061273d565b92505081905550606f600081548092919061158f906126f5565b91905055508573ffffffffffffffffffffffffffffffffffffffff167f36fa31929773337d618bbd15879a71f4c616aae393ee4a65291e02b0c5111b888289426040516115de93929190612cc0565b60405180910390a25050506115f161192e565b5050505050505050565b60715481565b7f30644e72e131a029b85045b68181585d2833e84879b9709143e1f593f00000017f01b0238ec2b57fd8b28145f345d3a19299084fd1e2b053e80a70e140d8ceca1660001c6116509190612771565b81565b61165b611938565b600073ffffffffffffffffffffffffffffffffffffffff168173ffffffffffffffffffffffffffffffffffffffff16036116ca576040517f08c379a00000000000000000000000000000000000000000000000000000000081526004016116c1906129c1565b60405180910390fd5b80607260006101000a81548173ffffffffffffffffffffffffffffffffffffffff021916908373ffffffffffffffffffffffffffffffffffffffff16021790555050565b601481565b6007816064811061172357600080fd5b016000915090505481565b611736611938565b600073ffffffffffffffffffffffffffffffffffffffff168173ffffffffffffffffffffffffffffffffffffffff16036117a85760006040517f1e4fbdf700000000000000000000000000000000000000000000000000000000815260040161179f9190611ed4565b60405180910390fd5b6117b1816119bf565b50565b606c5481565b6002600054036117f6576040517f3ee5aeb500000000000000000000000000000000000000000000000000000000815260040160405180910390fd5b6002600081905550565b600081905060008060005b60148110156119275760006002856118239190612771565b0361186c5760046000828152602001908152602001600020600085815260200190815260200160002054925061186581600186611860919061273d565b611ae4565b91506118c7565b60046000828152602001908152602001600020600060018661188e9190612530565b81526020019081526020016000205492506004600082815260200190815260200160002060008581526020019081526020016000205491505b60006118d38484611b7a565b90506002856118e291906124ff565b945080600460006001856118f6919061273d565b815260200190815260200160002060008781526020019081526020016000208190555050808060010191505061180b565b5050505050565b6001600081905550565b611940611bad565b73ffffffffffffffffffffffffffffffffffffffff1661195e610d89565b73ffffffffffffffffffffffffffffffffffffffff16146119bd57611981611bad565b6040517f118cdaa70000000000000000000000000000000000000000000000000000000081526004016119b49190611ed4565b60405180910390fd5b565b6000600160009054906101000a900473ffffffffffffffffffffffffffffffffffffffff16905081600160006101000a81548173ffffffffffffffffffffffffffffffffffffffff021916908373ffffffffffffffffffffffffffffffffffffffff1602179055508173ffffffffffffffffffffffffffffffffffffffff168173ffffffffffffffffffffffffffffffffffffffff167f8be0079c531659141344cd1fd0a4f28419497f9722a3daafe3b4186f6b6457e060405160405180910390a35050565b60008060001b8203611a9a5760009050611adf565b60005b6064811015611ad9578260078260648110611abb57611aba6127a2565b5b015403611acc576001915050611adf565b8080600101915050611a9d565b50600090505b919050565b6000806004600085815260200190815260200160002060008481526020019081526020016000205490506000801b8114611b1e5780611b71565b7f30644e72e131a029b85045b68181585d2833e84879b9709143e1f593f00000017f01b0238ec2b57fd8b28145f345d3a19299084fd1e2b053e80a70e140d8ceca1660001c611b6d9190612771565b60001b5b91505092915050565b60008282604051602001611b8f929190612d18565b60405160208183030381529060405280519060200120905092915050565b600033905090565b60405180610c800160405280606490602082028036833780820191505090505090565b6000819050919050565b611beb81611bd8565b82525050565b6000602082019050611c066000830184611be2565b92915050565b600060649050919050565b600081905092915050565b6000819050919050565b6000819050919050565b611c3f81611c2c565b82525050565b6000611c518383611c36565b60208301905092915050565b6000602082019050919050565b611c7381611c0c565b611c7d8184611c17565b9250611c8882611c22565b8060005b83811015611cb9578151611ca08782611c45565b9650611cab83611c5d565b925050600181019050611c8c565b505050505050565b6000610c8082019050611cd76000830184611c6a565b92915050565b600080fd5b611ceb81611c2c565b8114611cf657600080fd5b50565b600081359050611d0881611ce2565b92915050565b611d1781611bd8565b8114611d2257600080fd5b50565b600081359050611d3481611d0e565b92915050565b60008060408385031215611d5157611d50611cdd565b5b6000611d5f85828601611cf9565b9250506020611d7085828601611d25565b9150509250929050565b600060208284031215611d9057611d8f611cdd565b5b6000611d9e84828501611cf9565b91505092915050565b60008115159050919050565b611dbc81611da7565b82525050565b6000602082019050611dd76000830184611db3565b92915050565b600073ffffffffffffffffffffffffffffffffffffffff82169050919050565b6000819050919050565b6000611e22611e1d611e1884611ddd565b611dfd565b611ddd565b9050919050565b6000611e3482611e07565b9050919050565b6000611e4682611e29565b9050919050565b611e5681611e3b565b82525050565b6000602082019050611e716000830184611e4d565b92915050565b6000611e8282611e29565b9050919050565b611e9281611e77565b82525050565b6000602082019050611ead6000830184611e89565b92915050565b6000611ebe82611ddd565b9050919050565b611ece81611eb3565b82525050565b6000602082019050611ee96000830184611ec5565b92915050565b600060208284031215611f0557611f04611cdd565b5b6000611f1384828501611d25565b91505092915050565b611f2581611c2c565b82525050565b6000602082019050611f406000830184611f1c565b92915050565b60008060408385031215611f5d57611f5c611cdd565b5b6000611f6b85828601611d25565b9250506020611f7c85828601611d25565b9150509250929050565b6000608082019050611f9b6000830187611be2565b611fa86020830186611f1c565b611fb56040830185611be2565b611fc26060830184611be2565b95945050505050565b611fd481611eb3565b8114611fdf57600080fd5b50565b600081359050611ff181611fcb565b92915050565b60006020828403121561200d5761200c611cdd565b5b600061201b84828501611fe2565b91505092915050565b600080fd5b60008190508260206002028201111561204557612044612024565b5b92915050565b60008190508260406002028201111561206757612066612024565b5b92915050565b60008190508260206001028201111561208957612088612024565b5b92915050565b6000806000806000806000806101a0898b0312156120b0576120af611cdd565b5b60006120be8b828c01612029565b98505060406120cf8b828c0161204b565b97505060c06120e08b828c01612029565b9650506101006120f28b828c0161206d565b9550506101206121048b828c01611cf9565b9450506101406121168b828c01611fe2565b9350506101606121288b828c01611d25565b92505061018061213a8b828c01611d25565b9150509295985092959890939650565b7f4e487b7100000000000000000000000000000000000000000000000000000000600052601160045260246000fd5b60008160011c9050919050565b6000808291508390505b60018511156121d0578086048111156121ac576121ab61214a565b5b60018516156121bb5780820291505b80810290506121c985612179565b9450612190565b94509492505050565b6000826121e957600190506122a5565b816121f757600090506122a5565b816001811461220d576002811461221757612246565b60019150506122a5565b60ff8411156122295761222861214a565b5b8360020a9150848211156122405761223f61214a565b5b506122a5565b5060208310610133831016604e8410600b841016171561227b5782820a9050838111156122765761227561214a565b5b6122a5565b6122888484846001612186565b9250905081840481111561229f5761229e61214a565b5b81810290505b9392505050565b60006122b782611bd8565b91506122c283611bd8565b92506122ef7fffffffffffffffffffffffffffffffffffffffffffffffffffffffffffffffff84846121d9565b905092915050565b60008151905061230681611d0e565b92915050565b60006020828403121561232257612321611cdd565b5b6000612330848285016122f7565b91505092915050565b600082825260208201905092915050565b7f416d6f756e74206d757374206265203e20300000000000000000000000000000600082015250565b6000612380601283612339565b915061238b8261234a565b602082019050919050565b600060208201905081810360008301526123af81612373565b9050919050565b7f547265652069732066756c6c0000000000000000000000000000000000000000600082015250565b60006123ec600c83612339565b91506123f7826123b6565b602082019050919050565b6000602082019050818103600083015261241b816123df565b9050919050565b7f496e76616c696420636f6d6d69746d656e740000000000000000000000000000600082015250565b6000612458601283612339565b915061246382612422565b602082019050919050565b600060208201905081810360008301526124878161244b565b9050919050565b600061249982611bd8565b91506124a483611bd8565b92508282026124b281611bd8565b915082820484148315176124c9576124c861214a565b5b5092915050565b7f4e487b7100000000000000000000000000000000000000000000000000000000600052601260045260246000fd5b600061250a82611bd8565b915061251583611bd8565b925082612525576125246124d0565b5b828204905092915050565b600061253b82611bd8565b915061254683611bd8565b925082820390508181111561255e5761255d61214a565b5b92915050565b60006060820190506125796000830186611ec5565b6125866020830185611ec5565b6125936040830184611be2565b949350505050565b6125a481611da7565b81146125af57600080fd5b50565b6000815190506125c18161259b565b92915050565b6000602082840312156125dd576125dc611cdd565b5b60006125eb848285016125b2565b91505092915050565b7f5472616e73666572206661696c65640000000000000000000000000000000000600082015250565b600061262a600f83612339565b9150612635826125f4565b602082019050919050565b600060208201905081810360008301526126598161261d565b9050919050565b60006040820190506126756000830185611ec5565b6126826020830184611be2565b9392505050565b7f466565207472616e73666572206661696c656400000000000000000000000000600082015250565b60006126bf601383612339565b91506126ca82612689565b602082019050919050565b600060208201905081810360008301526126ee816126b2565b9050919050565b600061270082611bd8565b91507fffffffffffffffffffffffffffffffffffffffffffffffffffffffffffffffff82036127325761273161214a565b5b600182019050919050565b600061274882611bd8565b915061275383611bd8565b925082820190508082111561276b5761276a61214a565b5b92915050565b600061277c82611bd8565b915061278783611bd8565b925082612797576127966124d0565b5b828206905092915050565b7f4e487b7100000000000000000000000000000000000000000000000000000000600052603260045260246000fd5b60006060820190506127e66000830186611be2565b6127f36020830185611be2565b6128006040830184611be2565b949350505050565b7f46656520746f6f20686967680000000000000000000000000000000000000000600082015250565b600061283e600c83612339565b915061284982612808565b602082019050919050565b6000602082019050818103600083015261286d81612831565b9050919050565b60006040820190506128896000830185611be2565b6128966020830184611be2565b9392505050565b7f496e76616c696420766572696669657200000000000000000000000000000000600082015250565b60006128d3601083612339565b91506128de8261289d565b602082019050919050565b60006020820190508181036000830152612902816128c6565b9050919050565b7f4e756c6c696669657220616c7265616479207370656e74000000000000000000600082015250565b600061293f601783612339565b915061294a82612909565b602082019050919050565b6000602082019050818103600083015261296e81612932565b9050919050565b7f496e76616c696420726563697069656e74000000000000000000000000000000600082015250565b60006129ab601183612339565b91506129b682612975565b602082019050919050565b600060208201905081810360008301526129da8161299e565b9050919050565b7f436861696e204944206d69736d61746368000000000000000000000000000000600082015250565b6000612a17601183612339565b9150612a22826129e1565b602082019050919050565b60006020820190508181036000830152612a4681612a0a565b9050919050565b7f556e6b6e6f776e206d65726b6c6520726f6f7400000000000000000000000000600082015250565b6000612a83601383612339565b9150612a8e82612a4d565b602082019050919050565b60006020820190508181036000830152612ab281612a76565b9050919050565b7f496e73756666696369656e7420706f6f6c000000000000000000000000000000600082015250565b6000612aef601183612339565b9150612afa82612ab9565b602082019050919050565b60006020820190508181036000830152612b1e81612ae2565b9050919050565b82818337505050565b612b3a60408383612b25565b5050565b600060029050919050565b600081905092915050565b6000819050919050565b612b6a60408383612b25565b5050565b6000612b7a8383612b5e565b60408301905092915050565b600082905092915050565b6000604082019050919050565b612ba781612b3e565b612bb18184612b49565b9250612bbc82612b54565b8060005b83811015612bf557612bd28284612b86565b612bdc8782612b6e565b9650612be783612b91565b925050600181019050612bc0565b505050505050565b612c0960208383612b25565b5050565b600061012082019050612c236000830187612b2e565b612c306040830186612b9e565b612c3d60c0830185612b2e565b612c4b610100830184612bfd565b95945050505050565b7f496e76616c69642070726f6f6600000000000000000000000000000000000000600082015250565b6000612c8a600d83612339565b9150612c9582612c54565b602082019050919050565b60006020820190508181036000830152612cb981612c7d565b9050919050565b6000606082019050612cd56000830186611be2565b612ce26020830185611f1c565b612cef6040830184611be2565b949350505050565b6000819050919050565b612d12612d0d82611c2c565b612cf7565b82525050565b6000612d248285612d01565b602082019150612d348284612d01565b602082019150819050939250505056fea264697066735822122089974db051c26702bc3770c155fdd57dd54ff662e7efab7cca817d4886fc8f9164736f6c634300081c0033",
  "linkReferences": {},
  "deployedLinkReferences": {}
}