{
  "_format": "hh-sol-artifact-1",
  "contractName": "SimplePrivacyAccount",
  "sourceName": "contracts/SimplePrivacyAccount.sol",
  "abi": [
    {
      "inputs": [
        {
          "internalType": "address",
          "name": "_privacyTree",
          "type": "address"
        }
      ],
      "stateMutability": "nonpayable",
      "type": "constructor"
    },
    {
      "inputs": [
        {
          "internalType": "address",
          "name": "owner",
          "type": "address"
        }
      ],
      "name": "OwnableInvalidOwner",
      "type": "error"
    },
    {
      "inputs": [
        {
          "internalType": "address",
          "name": "account",
          "type": "address"
        }
      ],
      "name": "OwnableUnauthorizedAccount",
      "type": "error"
    },
    {
      "inputs": [],
      "name": "ReentrancyGuardReentrantCall",
      "type": "error"
    },
    {
      "anonymous": false,
      "inputs": [
        {
          "indexed": true,
          "internalType": "address",
          "name": "target",
          "type": "address"
        },
        {
          "indexed": false,
          "internalType": "uint256",
          "name": "value",
          "type": "uint256"
        },
        {
          "indexed": false,
          "internalType": "bytes",
          "name": "data",
          "type": "bytes"
        }
      ],
      "name": "Executed",
      "type": "event"
    },
    {
      "anonymous": false,
      "inputs": [
        {
          "indexed": true,
          "internalType": "uint256",
          "name": "paymentId",
          "type": "uint256"
        },
        {
          "components": [
            {
              "internalType": "uint256",
              "name": "chainId",
              "type": "uint256"
            },
            {
              "internalType": "uint256",
              "name": "amount",
              "type": "uint256"
            },
            {
              "internalType": "address",
              "name": "targetContract",
              "type": "address"
            }
          ],
          "indexed": false,
          "internalType": "struct SimplePrivacyAccount.ChainSplit[]",
          "name": "splits",
          "type": "tuple[]"
        }
      ],
      "name": "MultiChainPaymentSplit",
      "type": "event"
    },
    {
      "anonymous": false,
      "inputs": [
        {
          "indexed": true,
          "internalType": "address",
          "name": "previousOwner",
          "type": "address"
        },
        {
          "indexed": true,
          "internalType": "address",
          "name": "newOwner",
          "type": "address"
        }
      ],
      "name": "OwnershipTransferred",
      "type": "event"
    },
    {
      "anonymous": false,
      "inputs": [
        {
          "indexed": false,
          "internalType": "bytes32",
          "name": "commitment",
          "type": "bytes32"
        },
        {
          "indexed": false,
          "internalType": "uint256",
          "name": "amount",
          "type": "uint256"
        }
      ],
      "name": "PrivacyPaymentInitiated",
      "type": "event"
    },
    {
      "anonymous": false,
      "inputs": [
        {
          "indexed": false,
          "internalType": "bool",
          "name": "enabled",
          "type": "bool"
        }
      ],
      "name": "PrivacyToggled",
      "type": "event"
    },
    {
      "anonymous": false,
      "inputs": [
        {
          "indexed": true,
          "internalType": "address",
          "name": "newTree",
          "type": "address"
        }
      ],
      "name": "PrivacyTreeUpdated",
      "type": "event"
    },
    {
      "inputs": [
        {
          "internalType": "address",
          "name": "target",
          "type": "address"
        },
        {
          "internalType": "uint256",
          "name": "value",
          "type": "uint256"
        },
        {
          "internalType": "bytes",
          "name": "data",
          "type": "bytes"
        }
      ],
      "name": "execute",
      "outputs": [],
      "stateMutability": "nonpayable",
      "type": "function"
    },
    {
      "inputs": [
        {
          "internalType": "address[]",
          "name": "targets",
          "type": "address[]"
        },
        {
          "internalType": "uint256[]",
          "name": "values",
          "type": "uint256[]"
        },
        {
          "internalType": "bytes[]",
          "name": "datas",
          "type": "bytes[]"
        }
      ],
      "name": "executeBatch",
      "outputs": [],
      "stateMutability": "nonpayable",
      "type": "function"
    },
    {
      "inputs": [
        {
          "internalType": "uint256",
          "name": "paymentId",
          "type": "uint256"
        },
        {
          "components": [
            {
              "internalType": "uint256",
              "name": "chainId",
              "type": "uint256"
            },
            {
              "internalType": "uint256",
              "name": "amount",
              "type": "uint256"
            },
            {
              "internalType": "address",
              "name": "targetContract",
              "type": "address"
            }
          ],
          "internalType": "struct SimplePrivacyAccount.ChainSplit[]",
          "name": "splits",
          "type": "tuple[]"
        },
        {
          "internalType": "address",
          "name": "token",
          "type": "address"
        },
        {
          "internalType": "uint256",
          "name": "totalAmount",
          "type": "uint256"
        }
      ],
      "name": "initiateMultiChainPayment",
      "outputs": [],
      "stateMutability": "nonpayable",
      "type": "function"
    },
    {
      "inputs": [
        {
          "internalType": "address",
          "name": "token",
          "type": "address"
        },
        {
          "internalType": "uint256",
          "name": "amount",
          "type": "uint256"
        },
        {
          "internalType": "bytes32",
          "name": "commitment",
          "type": "bytes32"
        }
      ],
      "name": "makePrivacyPayment",
      "outputs": [],
      "stateMutability": "nonpayable",
      "type": "function"
    },
    {
      "inputs": [],
      "name": "owner",
      "outputs": [
        {
          "internalType": "address",
          "name": "",
          "type": "address"
        }
      ],
      "stateMutability": "view",
      "type": "function"
    },
    {
      "inputs": [],
      "name": "privacyEnabled",
      "outputs": [
        {
          "internalType": "bool",
          "name": "",
          "type": "bool"
        }
      ],
      "stateMutability": "view",
      "type": "function"
    },
    {
      "inputs": [],
      "name": "privacyTreeContract",
      "outputs": [
        {
          "internalType": "address",
          "name": "",
          "type": "address"
        }
      ],
      "stateMutability": "view",
      "type": "function"
    },
    {
      "inputs": [
        {
          "internalType": "address",
          "name": "token",
          "type": "address"
        },
        {
          "internalType": "uint256",
          "name": "amount",
          "type": "uint256"
        }
      ],
      "name": "recoverERC20",
      "outputs": [],
      "stateMutability": "nonpayable",
      "type": "function"
    },
    {
      "inputs": [],
      "name": "recoverETH",
      "outputs": [],
      "stateMutability": "nonpayable",
      "type": "function"
    },
    {
      "inputs": [],
      "name": "renounceOwnership",
      "outputs": [],
      "stateMutability": "nonpayable",
      "type": "function"
    },
    {
      "inputs": [
        {
          "internalType": "bool",
          "name": "_enabled",
          "type": "bool"
        }
      ],
      "name": "setPrivacyEnabled",
      "outputs": [],
      "stateMutability": "nonpayable",
      "type": "function"
    },
    {
      "inputs": [
        {
          "internalType": "address",
          "name": "_privacyTree",
          "type": "address"
        }
      ],
      "name": "setPrivacyTree",
      "outputs": [],
      "stateMutability": "nonpayable",
      "type": "function"
    },
    {
      "inputs": [
        {
          "internalType": "address",
          "name": "newOwner",
          "type": "address"
        }
      ],
      "name": "transferOwnership",
      "outputs": [],
      "stateMutability": "nonpayable",
      "type": "function"
    },
    {
      "inputs": [
        {
          "internalType": "uint256[2]",
          "name": "pA",
          "type": "uint256[2]"
        },
        {
          "internalType": "uint256[2][2]",
          "name": "pB",
          "type": "uint256[2][2]"
        },
        {
          "internalType": "uint256[2]",
          "name": "pC",
          "type": "uint256[2]"
        },
        {
          "internalType": "uint256[1]",
          "name": "pubSignals",
          "type": "uint256[1]"
        },
        {
          "internalType": "bytes32",
          "name": "nullifier",
          "type": "bytes32"
        },
        {
          "internalType": "address",
          "name": "recipient",
          "type": "address"
        },
        {
          "internalType": "uint256",
          "name": "amount",
          "type": "uint256"
        }
      ],
      "name": "withdrawFromPrivacyPool",
      "outputs": [],
      "stateMutability": "nonpayable",
      "type": "function"
    },
    {
      "stateMutability": "payable",
      "type": "receive"
    }
  ],
  "bytecode": "0x608060405234801561001057600080fd5b506040516122c73803806122c783398181016040528101906100329190610247565b336001600081905550600073ffffffffffffffffffffffffffffffffffffffff168173ffffffffffffffffffffffffffffffffffffffff16036100ad5760006040517f1e4fbdf70000000000000000000000000000000000000000000000000000000081526004016100a49190610283565b60405180910390fd5b6100bc8161011e60201b60201c565b5080600260006101000a81548173ffffffffffffffffffffffffffffffffffffffff021916908373ffffffffffffffffffffffffffffffffffffffff16021790555060018060146101000a81548160ff0219169083151502179055505061029e565b6000600160009054906101000a900473ffffffffffffffffffffffffffffffffffffffff16905081600160006101000a81548173ffffffffffffffffffffffffffffffffffffffff021916908373ffffffffffffffffffffffffffffffffffffffff1602179055508173ffffffffffffffffffffffffffffffffffffffff168173ffffffffffffffffffffffffffffffffffffffff167f8be0079c531659141344cd1fd0a4f28419497f9722a3daafe3b4186f6b6457e060405160405180910390a35050565b600080fd5b600073ffffffffffffffffffffffffffffffffffffffff82169050919050565b6000610214826101e9565b9050919050565b61022481610209565b811461022f57600080fd5b50565b6000815190506102418161021b565b92915050565b60006020828403121561025d5761025c6101e4565b5b600061026b84828501610232565b91505092915050565b61027d81610209565b82525050565b60006020820190506102986000830184610274565b92915050565b61201a806102ad6000396000f3fe6080604052600436106100e15760003560e01c80638980f11f1161007f5780639c68968a116100595780639c68968a14610269578063b61d27f614610292578063e419599c146102bb578063f2fde38b146102e4576100e8565b80638980f11f146101ea5780638ce4c28c146102135780638da5cb5b1461023e576100e8565b806347e1da2a116100bb57806347e1da2a146101585780634c69d50b1461018157806355489bfb146101aa578063715018a6146101d3576100e8565b80630614117a146100ed578063303e715f146101045780633495acca1461012f576100e8565b366100e857005b600080fd5b3480156100f957600080fd5b5061010261030d565b005b34801561011057600080fd5b50610119610365565b6040516101269190611085565b60405180910390f35b34801561013b57600080fd5b50610156600480360381019061015191906110d6565b610378565b005b34801561016457600080fd5b5061017f600480360381019061017a9190611214565b6103d4565b005b34801561018d57600080fd5b506101a860048036038101906101a39190611326565b6104d8565b005b3480156101b657600080fd5b506101d160048036038101906101cc91906113bf565b6105d6565b005b3480156101df57600080fd5b506101e86108fe565b005b3480156101f657600080fd5b50610211600480360381019061020c9190611412565b610912565b005b34801561021f57600080fd5b506102286109a4565b6040516102359190611461565b60405180910390f35b34801561024a57600080fd5b506102536109ca565b6040516102609190611461565b60405180910390f35b34801561027557600080fd5b50610290600480360381019061028b91906114e2565b6109f4565b005b34801561029e57600080fd5b506102b960048036038101906102b491906115df565b610b41565b005b3480156102c757600080fd5b506102e260048036038101906102dd91906116a9565b610bbd565b005b3480156102f057600080fd5b5061030b60048036038101906103069190611326565b610db8565b005b610315610e3e565b61031d6109ca565b73ffffffffffffffffffffffffffffffffffffffff166108fc479081150290604051600060405180830381858888f19350505050158015610362573d6000803e3d6000fd5b50565b600160149054906101000a900460ff1681565b610380610e3e565b80600160146101000a81548160ff0219169083151502179055507f7545d47b3ce62da68159209ac975bb30231c26570763672301f21e0f85811207816040516103c99190611085565b60405180910390a150565b6103dc610e3e565b6103e4610ec5565b83839050868690501480156103fe57508181905086869050145b61043d576040517f08c379a00000000000000000000000000000000000000000000000000000000081526004016104349061178e565b60405180910390fd5b60005b868690508110156104c7576104ba878783818110610461576104606117ae565b5b90506020020160208101906104769190611326565b868684818110610489576104886117ae565b5b905060200201358585858181106104a3576104a26117ae565b5b90506020028101906104b591906117ec565b610f0b565b8080600101915050610440565b506104d0610f92565b505050505050565b6104e0610e3e565b600073ffffffffffffffffffffffffffffffffffffffff168173ffffffffffffffffffffffffffffffffffffffff160361054f576040517f08c379a00000000000000000000000000000000000000000000000000000000081526004016105469061189b565b60405180910390fd5b80600260006101000a81548173ffffffffffffffffffffffffffffffffffffffff021916908373ffffffffffffffffffffffffffffffffffffffff1602179055508073ffffffffffffffffffffffffffffffffffffffff167f7513fc82c64355aa19df54e9e3085a89ebd5675624ff6ac5f24b02fd7ea1819960405160405180910390a250565b6105de610e3e565b6105e6610ec5565b600160149054906101000a900460ff16610635576040517f08c379a000000000000000000000000000000000000000000000000000000000815260040161062c90611907565b60405180910390fd5b600073ffffffffffffffffffffffffffffffffffffffff16600260009054906101000a900473ffffffffffffffffffffffffffffffffffffffff1673ffffffffffffffffffffffffffffffffffffffff16036106c6576040517f08c379a00000000000000000000000000000000000000000000000000000000081526004016106bd90611973565b60405180910390fd5b6000839050828173ffffffffffffffffffffffffffffffffffffffff166370a08231306040518263ffffffff1660e01b81526004016107059190611461565b602060405180830381865afa158015610722573d6000803e3d6000fd5b505050506040513d601f19601f8201168201806040525081019061074691906119a8565b1015610787576040517f08c379a000000000000000000000000000000000000000000000000000000000815260040161077e90611a21565b60405180910390fd5b8073ffffffffffffffffffffffffffffffffffffffff1663095ea7b3600260009054906101000a900473ffffffffffffffffffffffffffffffffffffffff16856040518363ffffffff1660e01b81526004016107e4929190611a50565b6020604051808303816000875af1158015610803573d6000803e3d6000fd5b505050506040513d601f19601f820116820180604052508101906108279190611a8e565b50600260009054906101000a900473ffffffffffffffffffffffffffffffffffffffff1673ffffffffffffffffffffffffffffffffffffffff16631de26e1683856040518363ffffffff1660e01b8152600401610885929190611aca565b600060405180830381600087803b15801561089f57600080fd5b505af11580156108b3573d6000803e3d6000fd5b505050507f2f8aa6d652bf378d1ab405de9b213c278ef41e54509e1a157744a2e8ec7eeb8e82846040516108e8929190611aca565b60405180910390a1506108f9610f92565b505050565b610906610e3e565b6109106000610f9c565b565b61091a610e3e565b8173ffffffffffffffffffffffffffffffffffffffff1663a9059cbb61093e6109ca565b836040518363ffffffff1660e01b815260040161095c929190611a50565b6020604051808303816000875af115801561097b573d6000803e3d6000fd5b505050506040513d601f19601f8201168201806040525081019061099f9190611a8e565b505050565b600260009054906101000a900473ffffffffffffffffffffffffffffffffffffffff1681565b6000600160009054906101000a900473ffffffffffffffffffffffffffffffffffffffff16905090565b6109fc610e3e565b610a04610ec5565b600073ffffffffffffffffffffffffffffffffffffffff16600260009054906101000a900473ffffffffffffffffffffffffffffffffffffffff1673ffffffffffffffffffffffffffffffffffffffff1603610a95576040517f08c379a0000000000000000000000000000000000000000000000000000000008152600401610a8c90611973565b60405180910390fd5b600260009054906101000a900473ffffffffffffffffffffffffffffffffffffffff1673ffffffffffffffffffffffffffffffffffffffff1663e3327a7588888888888888466040518963ffffffff1660e01b8152600401610afe989796959493929190611bdb565b600060405180830381600087803b158015610b1857600080fd5b505af1158015610b2c573d6000803e3d6000fd5b50505050610b38610f92565b50505050505050565b610b49610e3e565b610b51610ec5565b610b5d84848484610f0b565b8373ffffffffffffffffffffffffffffffffffffffff167fcaf938de11c367272220bfd1d2baa99ca46665e7bc4d85f00adb51b90fe1fa9f848484604051610ba793929190611cbc565b60405180910390a2610bb7610f92565b50505050565b610bc5610e3e565b610bcd610ec5565b600084849050118015610be4575060058484905011155b610c23576040517f08c379a0000000000000000000000000000000000000000000000000000000008152600401610c1a90611d3a565b60405180910390fd5b6000805b85859050811015610c6957858582818110610c4557610c446117ae565b5b9050606002016020013582610c5a9190611d89565b91508080600101915050610c27565b50818114610cac576040517f08c379a0000000000000000000000000000000000000000000000000000000008152600401610ca390611e09565b60405180910390fd5b6000839050828173ffffffffffffffffffffffffffffffffffffffff166370a08231306040518263ffffffff1660e01b8152600401610ceb9190611461565b602060405180830381865afa158015610d08573d6000803e3d6000fd5b505050506040513d601f19601f82011682018060405250810190610d2c91906119a8565b1015610d6d576040517f08c379a0000000000000000000000000000000000000000000000000000000008152600401610d6490611a21565b60405180910390fd5b867f80c5bf3cf5e82e72322f5b9d9e1302f3e0722d58927197585b2c2c96ca21c4168787604051610d9f929190611f77565b60405180910390a25050610db1610f92565b5050505050565b610dc0610e3e565b600073ffffffffffffffffffffffffffffffffffffffff168173ffffffffffffffffffffffffffffffffffffffff1603610e325760006040517f1e4fbdf7000000000000000000000000000000000000000000000000000000008152600401610e299190611461565b60405180910390fd5b610e3b81610f9c565b50565b610e46611062565b73ffffffffffffffffffffffffffffffffffffffff16610e646109ca565b73ffffffffffffffffffffffffffffffffffffffff1614610ec357610e87611062565b6040517f118cdaa7000000000000000000000000000000000000000000000000000000008152600401610eba9190611461565b60405180910390fd5b565b600260005403610f01576040517f3ee5aeb500000000000000000000000000000000000000000000000000000000815260040160405180910390fd5b6002600081905550565b6000808573ffffffffffffffffffffffffffffffffffffffff16858585604051610f36929190611fcb565b60006040518083038185875af1925050503d8060008114610f73576040519150601f19603f3d011682016040523d82523d6000602084013e610f78565b606091505b509150915081610f8a57805160208201fd5b505050505050565b6001600081905550565b6000600160009054906101000a900473ffffffffffffffffffffffffffffffffffffffff16905081600160006101000a81548173ffffffffffffffffffffffffffffffffffffffff021916908373ffffffffffffffffffffffffffffffffffffffff1602179055508173ffffffffffffffffffffffffffffffffffffffff168173ffffffffffffffffffffffffffffffffffffffff167f8be0079c531659141344cd1fd0a4f28419497f9722a3daafe3b4186f6b6457e060405160405180910390a35050565b600033905090565b60008115159050919050565b61107f8161106a565b82525050565b600060208201905061109a6000830184611076565b92915050565b600080fd5b600080fd5b6110b38161106a565b81146110be57600080fd5b50565b6000813590506110d0816110aa565b92915050565b6000602082840312156110ec576110eb6110a0565b5b60006110fa848285016110c1565b91505092915050565b600080fd5b600080fd5b600080fd5b60008083601f84011261112857611127611103565b5b8235905067ffffffffffffffff81111561114557611144611108565b5b6020830191508360208202830111156111615761116061110d565b5b9250929050565b60008083601f84011261117e5761117d611103565b5b8235905067ffffffffffffffff81111561119b5761119a611108565b5b6020830191508360208202830111156111b7576111b661110d565b5b9250929050565b60008083601f8401126111d4576111d3611103565b5b8235905067ffffffffffffffff8111156111f1576111f0611108565b5b60208301915083602082028301111561120d5761120c61110d565b5b9250929050565b60008060008060008060608789031215611231576112306110a0565b5b600087013567ffffffffffffffff81111561124f5761124e6110a5565b5b61125b89828a01611112565b9650965050602087013567ffffffffffffffff81111561127e5761127d6110a5565b5b61128a89828a01611168565b9450945050604087013567ffffffffffffffff8111156112ad576112ac6110a5565b5b6112b989828a016111be565b92509250509295509295509295565b600073ffffffffffffffffffffffffffffffffffffffff82169050919050565b60006112f3826112c8565b9050919050565b611303816112e8565b811461130e57600080fd5b50565b600081359050611320816112fa565b92915050565b60006020828403121561133c5761133b6110a0565b5b600061134a84828501611311565b91505092915050565b6000819050919050565b61136681611353565b811461137157600080fd5b50565b6000813590506113838161135d565b92915050565b6000819050919050565b61139c81611389565b81146113a757600080fd5b50565b6000813590506113b981611393565b92915050565b6000806000606084860312156113d8576113d76110a0565b5b60006113e686828701611311565b93505060206113f786828701611374565b9250506040611408868287016113aa565b9150509250925092565b60008060408385031215611429576114286110a0565b5b600061143785828601611311565b925050602061144885828601611374565b9150509250929050565b61145b816112e8565b82525050565b60006020820190506114766000830184611452565b92915050565b6000819050826020600202820111156114985761149761110d565b5b92915050565b6000819050826040600202820111156114ba576114b961110d565b5b92915050565b6000819050826020600102820111156114dc576114db61110d565b5b92915050565b6000806000806000806000610180888a031215611502576115016110a0565b5b60006115108a828b0161147c565b97505060406115218a828b0161149e565b96505060c06115328a828b0161147c565b9550506101006115448a828b016114c0565b9450506101206115568a828b016113aa565b9350506101406115688a828b01611311565b92505061016061157a8a828b01611374565b91505092959891949750929550565b60008083601f84011261159f5761159e611103565b5b8235905067ffffffffffffffff8111156115bc576115bb611108565b5b6020830191508360018202830111156115d8576115d761110d565b5b9250929050565b600080600080606085870312156115f9576115f86110a0565b5b600061160787828801611311565b945050602061161887828801611374565b935050604085013567ffffffffffffffff811115611639576116386110a5565b5b61164587828801611589565b925092505092959194509250565b60008083601f84011261166957611668611103565b5b8235905067ffffffffffffffff81111561168657611685611108565b5b6020830191508360608202830111156116a2576116a161110d565b5b9250929050565b6000806000806000608086880312156116c5576116c46110a0565b5b60006116d388828901611374565b955050602086013567ffffffffffffffff8111156116f4576116f36110a5565b5b61170088828901611653565b9450945050604061171388828901611311565b925050606061172488828901611374565b9150509295509295909350565b600082825260208201905092915050565b7f4c656e677468206d69736d617463680000000000000000000000000000000000600082015250565b6000611778600f83611731565b915061178382611742565b602082019050919050565b600060208201905081810360008301526117a78161176b565b9050919050565b7f4e487b7100000000000000000000000000000000000000000000000000000000600052603260045260246000fd5b600080fd5b600080fd5b600080fd5b60008083356001602003843603038112611809576118086117dd565b5b80840192508235915067ffffffffffffffff82111561182b5761182a6117e2565b5b602083019250600182023603831315611847576118466117e7565b5b509250929050565b7f496e76616c696420616464726573730000000000000000000000000000000000600082015250565b6000611885600f83611731565b91506118908261184f565b602082019050919050565b600060208201905081810360008301526118b481611878565b9050919050565b7f507269766163792064697361626c656400000000000000000000000000000000600082015250565b60006118f1601083611731565b91506118fc826118bb565b602082019050919050565b60006020820190508181036000830152611920816118e4565b9050919050565b7f507269766163792074726565206e6f7420736574000000000000000000000000600082015250565b600061195d601483611731565b915061196882611927565b602082019050919050565b6000602082019050818103600083015261198c81611950565b9050919050565b6000815190506119a28161135d565b92915050565b6000602082840312156119be576119bd6110a0565b5b60006119cc84828501611993565b91505092915050565b7f496e73756666696369656e742062616c616e6365000000000000000000000000600082015250565b6000611a0b601483611731565b9150611a16826119d5565b602082019050919050565b60006020820190508181036000830152611a3a816119fe565b9050919050565b611a4a81611353565b82525050565b6000604082019050611a656000830185611452565b611a726020830184611a41565b9392505050565b600081519050611a88816110aa565b92915050565b600060208284031215611aa457611aa36110a0565b5b6000611ab284828501611a79565b91505092915050565b611ac481611389565b82525050565b6000604082019050611adf6000830185611abb565b611aec6020830184611a41565b9392505050565b82818337505050565b611b0860408383611af3565b5050565b600060029050919050565b600081905092915050565b6000819050919050565b611b3860408383611af3565b5050565b6000611b488383611b2c565b60408301905092915050565b600082905092915050565b6000604082019050919050565b611b7581611b0c565b611b7f8184611b17565b9250611b8a82611b22565b8060005b83811015611bc357611ba08284611b54565b611baa8782611b3c565b9650611bb583611b5f565b925050600181019050611b8e565b505050505050565b611bd760208383611af3565b5050565b60006101a082019050611bf1600083018b611afc565b611bfe604083018a611b6c565b611c0b60c0830189611afc565b611c19610100830188611bcb565b611c27610120830187611abb565b611c35610140830186611452565b611c43610160830185611a41565b611c51610180830184611a41565b9998505050505050505050565b600082825260208201905092915050565b82818337600083830152505050565b6000601f19601f8301169050919050565b6000611c9b8385611c5e565b9350611ca8838584611c6f565b611cb183611c7e565b840190509392505050565b6000604082019050611cd16000830186611a41565b8181036020830152611ce4818486611c8f565b9050949350505050565b7f496e76616c69642073706c697420636f756e7400000000000000000000000000600082015250565b6000611d24601383611731565b9150611d2f82611cee565b602082019050919050565b60006020820190508181036000830152611d5381611d17565b9050919050565b7f4e487b7100000000000000000000000000000000000000000000000000000000600052601160045260246000fd5b6000611d9482611353565b9150611d9f83611353565b9250828201905080821115611db757611db6611d5a565b5b92915050565b7f53706c69742073756d206d69736d617463680000000000000000000000000000600082015250565b6000611df3601283611731565b9150611dfe82611dbd565b602082019050919050565b60006020820190508181036000830152611e2281611de6565b9050919050565b600082825260208201905092915050565b6000819050919050565b6000611e536020840184611374565b905092915050565b611e6481611353565b82525050565b6000611e796020840184611311565b905092915050565b611e8a816112e8565b82525050565b60608201611ea16000830183611e44565b611eae6000850182611e5b565b50611ebc6020830183611e44565b611ec96020850182611e5b565b50611ed76040830183611e6a565b611ee46040850182611e81565b50505050565b6000611ef68383611e90565b60608301905092915050565b600082905092915050565b6000606082019050919050565b6000611f268385611e29565b9350611f3182611e3a565b8060005b85811015611f6a57611f478284611f02565b611f518882611eea565b9750611f5c83611f0d565b925050600181019050611f35565b5085925050509392505050565b60006020820190508181036000830152611f92818486611f1a565b90509392505050565b600081905092915050565b6000611fb28385611f9b565b9350611fbf838584611c6f565b82840190509392505050565b6000611fd8828486611fa6565b9150819050939250505056fea26469706673582212203de419b75e14c1d0fcd7a75b326e1c3a4796609d8848aa4cf994741f5fb0b7da64736f6c634300081c0033",
  "linkReferences": {},
  "deployedLinkReferences": {}
}